{
  "transactions": [
    {
      "hash": "0xab5881458bf20ef0d1b07652632313de0375c55614087b248158482660571361",
      "transactionType": "CALL",
      "contractName": null,
      "contractAddress": "0xf985a23edd3982c759aa7a027e70275ae003ecec",
      "function": "approve(address,uint256)",
      "arguments": [
        "0x1C7d9FBd1d20656520FD914E420E3bc2d25Ed747",
        "1000000000000000000"
      ],
      "transaction": {
        "from": "0xf51f97a20c4e00fd4d8f85462cf344bb152b10a3",
        "to": "0xf985a23edd3982c759aa7a027e70275ae003ecec",
        "gas": "0x9e2c",
        "value": "0x0",
        "input": "0x095ea7b30000000000000000000000001c7d9fbd1d20656520fd914e420e3bc2d25ed7470000000000000000000000000000000000000000000000000de0b6b3a7640000",
        "nonce": "0x661",
        "chainId": "0x89"
      },
      "additionalContracts": [],
      "isFixedGasLimit": false
    }
  ],
  "receipts": [
    {
      "status": "0x1",
      "cumulativeGasUsed": "0x6c20ef",
      "logs": [
        {
          "address": "0xf985a23edd3982c759aa7a027e70275ae003ecec",
          "topics": [
            "0x8c5be1e5ebec7d5bd14f71427d1e84f3dd0314c0f7b2291e5b200ac8c7c3b925",
            "0x000000000000000000000000f51f97a20c4e00fd4d8f85462cf344bb152b10a3",
            "0x0000000000000000000000001c7d9fbd1d20656520fd914e420e3bc2d25ed747"
          ],
          "data": "0x0000000000000000000000000000000000000000000000000de0b6b3a7640000",
          "blockHash": "0x4db3ad1f2b300037e31662cb8a19b9f5f6db5955c31ca7e8088edce1ef76aed7",
          "blockNumber": "0x3ad208e",
          "transactionHash": "0xab5881458bf20ef0d1b07652632313de0375c55614087b248158482660571361",
          "transactionIndex": "0x2e",
          "logIndex": "0xe2",
          "removed": false
        },
        {
          "address": "0x0000000000000000000000000000000000001010",
          "topics": [
            "0x4dfe1bbbcf077ddc3e01291eea2d5c70c2b422b415d95645b9adcfd678cb1d63",
            "0x0000000000000000000000000000000000000000000000000000000000001010",
            "0x000000000000000000000000f51f97a20c4e00fd4d8f85462cf344bb152b10a3",
            "0x000000000000000000000000365b3d473d137995ebf776e46a8ad233006c0049"
          ],
          "data": "0x00000000000000000000000000000000000000000000000000031fe1edb9522000000000000000000000000000000000000000000000003c68210e8aff12651b00000000000000000000000000000000000000000000004a9ec7609b399b815200000000000000000000000000000000000000000000003c681deea9115912fb00000000000000000000000000000000000000000000004a9eca807d2754d372",
          "blockHash": "0x4db3ad1f2b300037e31662cb8a19b9f5f6db5955c31ca7e8088edce1ef76aed7",
          "blockNumber": "0x3ad208e",
          "transactionHash": "0xab5881458bf20ef0d1b07652632313de0375c55614087b248158482660571361",
          "transactionIndex": "0x2e",
          "logIndex": "0xe3",
          "removed": false
        }
      ],
      "logsBloom": "0x00000000000000000000000000000000000000000000000000000000000000000000000000000020000000000000000000008000020000000000000000200000000000000000000000000000000000800010000000000000000110400000000000000000000000000008000000000000000000000000000080000000008000000000000000000000000000000000000000000000000000000000000000000000220100000000000000000000000000000000000000000000000000000000004000000000000000000041000400000000000000000000000000100000000000000010000000000000080000000000000020000000000000000000000000100000",
      "type": "0x2",
      "transactionHash": "0xab5881458bf20ef0d1b07652632313de0375c55614087b248158482660571361",
      "transactionIndex": "0x2e",
      "blockHash": "0x4db3ad1f2b300037e31662cb8a19b9f5f6db5955c31ca7e8088edce1ef76aed7",
      "blockNumber": "0x3ad208e",
      "gasUsed": "0x7284",
      "effectiveGasPrice": "0x6fc23bfbe",
      "from": "0xf51f97a20c4e00fd4d8f85462cf344bb152b10a3",
      "to": "0xf985a23edd3982c759aa7a027e70275ae003ecec",
      "contractAddress": null
    }
  ],
  "libraries": [],
  "pending": [],
  "returns": {},
  "timestamp": 1726022397,
  "chain": 137,
  "commit": "9da94ba"
}