{
  "transactions": [
    {
      "hash": "0xe3cda254046925782591f13c4663bd1d549765d3c7b0f27c2b6c8caccaafbf9d",
      "transactionType": "CALL",
      "contractName": null,
      "contractAddress": "0x0a4e502b3e5fa98dc43e5dd1bb94e3bbbaa6f468",
      "function": "approve(address,uint256)",
      "arguments": [
        "0x1C7d9FBd1d20656520FD914E420E3bc2d25Ed747",
        "1000000000000000000"
      ],
      "transaction": {
        "from": "0xf51f97a20c4e00fd4d8f85462cf344bb152b10a3",
        "to": "0x0a4e502b3e5fa98dc43e5dd1bb94e3bbbaa6f468",
        "gas": "0x108e2",
        "value": "0x0",
        "input": "0x095ea7b30000000000000000000000001c7d9fbd1d20656520fd914e420e3bc2d25ed7470000000000000000000000000000000000000000000000000de0b6b3a7640000",
        "nonce": "0x647",
        "chainId": "0x89"
      },
      "additionalContracts": [],
      "isFixedGasLimit": false
    }
  ],
  "receipts": [
    {
      "status": "0x1",
      "cumulativeGasUsed": "0x833546",
      "logs": [
        {
          "address": "0x0a4e502b3e5fa98dc43e5dd1bb94e3bbbaa6f468",
          "topics": [
            "0x8c5be1e5ebec7d5bd14f71427d1e84f3dd0314c0f7b2291e5b200ac8c7c3b925",
            "0x000000000000000000000000f51f97a20c4e00fd4d8f85462cf344bb152b10a3",
            "0x0000000000000000000000001c7d9fbd1d20656520fd914e420e3bc2d25ed747"
          ],
          "data": "0x0000000000000000000000000000000000000000000000000de0b6b3a7640000",
          "blockHash": "0x9aa0777853bb618e563774884772cbb15416a4d194ae69fe8a8bbe09f6a7564c",
          "blockNumber": "0x3ad0121",
          "transactionHash": "0xe3cda254046925782591f13c4663bd1d549765d3c7b0f27c2b6c8caccaafbf9d",
          "transactionIndex": "0x53",
          "logIndex": "0x13a",
          "removed": false
        },
        {
          "address": "0x0000000000000000000000000000000000001010",
          "topics": [
            "0x4dfe1bbbcf077ddc3e01291eea2d5c70c2b422b415d95645b9adcfd678cb1d63",
            "0x0000000000000000000000000000000000000000000000000000000000001010",
            "0x000000000000000000000000f51f97a20c4e00fd4d8f85462cf344bb152b10a3",
            "0x00000000000000000000000069f5c4d08f6bc8cd29fe5f004d46fb566270868d"
          ],
          "data": "0x00000000000000000000000000000000000000000000000000056fb1bb6bc86800000000000000000000000000000000000000000000003c6939c6d2125fd42b000000000000000000000000000000000000000000000064d529a6962326211400000000000000000000000000000000000000000000003c6934572056f40bc3000000000000000000000000000000000000000000000064d52f1647de91e97c",
          "blockHash": "0x9aa0777853bb618e563774884772cbb15416a4d194ae69fe8a8bbe09f6a7564c",
          "blockNumber": "0x3ad0121",
          "transactionHash": "0xe3cda254046925782591f13c4663bd1d549765d3c7b0f27c2b6c8caccaafbf9d",
          "transactionIndex": "0x53",
          "logIndex": "0x13b",
          "removed": false
        }
      ],
      "logsBloom": "0x00000000000000000000000002000000000000000000000000000000000000000000000000000020200000000000000000008000020000000000000000200000000000000000000000000000000040800000000100000000000100000000000000000000000000000008000000000000000000000000000080000000000000000000000000200000000040000000000000000000000000000000000000000000220100000000000000000000000000000000000000000000000000000000004000000000000000000041000000000000000000000000000000100000000000000010000000000000080000000000000000000000000000000000000000100000",
      "type": "0x2",
      "transactionHash": "0xe3cda254046925782591f13c4663bd1d549765d3c7b0f27c2b6c8caccaafbf9d",
      "transactionIndex": "0x53",
      "blockHash": "0x9aa0777853bb618e563774884772cbb15416a4d194ae69fe8a8bbe09f6a7564c",
      "blockNumber": "0x3ad0121",
      "gasUsed": "0xbfc6",
      "effectiveGasPrice": "0x741c8d956",
      "from": "0xf51f97a20c4e00fd4d8f85462cf344bb152b10a3",
      "to": "0x0a4e502b3e5fa98dc43e5dd1bb94e3bbbaa6f468",
      "contractAddress": null
    }
  ],
  "libraries": [],
  "pending": [],
  "returns": {},
  "timestamp": 1726005260,
  "chain": 137,
  "commit": "5b167d2"
}