{
  "transactions": [
    {
      "hash": "0x93107622470082449b922512d274a0052c43e71db77d9a41f164a4ff4f162858",
      "transactionType": "CALL",
      "contractName": null,
      "contractAddress": "0xf985a23edd3982c759aa7a027e70275ae003ecec",
      "function": "approve(address,uint256)",
      "arguments": [
        "0x1C7d9FBd1d20656520FD914E420E3bc2d25Ed747",
        "1000000000000000000"
      ],
      "transaction": {
        "from": "0xf51f97a20c4e00fd4d8f85462cf344bb152b10a3",
        "to": "0xf985a23edd3982c759aa7a027e70275ae003ecec",
        "gas": "0x8f10",
        "value": "0x0",
        "input": "0x095ea7b30000000000000000000000001c7d9fbd1d20656520fd914e420e3bc2d25ed7470000000000000000000000000000000000000000000000000de0b6b3a7640000",
        "nonce": "0x648",
        "chainId": "0x89"
      },
      "additionalContracts": [],
      "isFixedGasLimit": false
    }
  ],
  "receipts": [
    {
      "status": "0x1",
      "cumulativeGasUsed": "0x4714df",
      "logs": [
        {
          "address": "0xf985a23edd3982c759aa7a027e70275ae003ecec",
          "topics": [
            "0x8c5be1e5ebec7d5bd14f71427d1e84f3dd0314c0f7b2291e5b200ac8c7c3b925",
            "0x000000000000000000000000f51f97a20c4e00fd4d8f85462cf344bb152b10a3",
            "0x0000000000000000000000001c7d9fbd1d20656520fd914e420e3bc2d25ed747"
          ],
          "data": "0x0000000000000000000000000000000000000000000000000de0b6b3a7640000",
          "blockHash": "0xec94cc32a99ac0e78867ee30c71e5b97ed082400d2e147c93ddf348774867ad6",
          "blockNumber": "0x3ad0177",
          "transactionHash": "0x93107622470082449b922512d274a0052c43e71db77d9a41f164a4ff4f162858",
          "transactionIndex": "0x25",
          "logIndex": "0x7f",
          "removed": false
        },
        {
          "address": "0x0000000000000000000000000000000000001010",
          "topics": [
            "0x4dfe1bbbcf077ddc3e01291eea2d5c70c2b422b415d95645b9adcfd678cb1d63",
            "0x0000000000000000000000000000000000000000000000000000000000001010",
            "0x000000000000000000000000f51f97a20c4e00fd4d8f85462cf344bb152b10a3",
            "0x0000000000000000000000001d25c827abd466387bda00b429fe728627d6eee6"
          ],
          "data": "0x0000000000000000000000000000000000000000000000000002d3d8c1efc67000000000000000000000000000000000000000000000003c6934572056e091a700000000000000000000000000000000000000000000050b032ce455c15e9b9e00000000000000000000000000000000000000000000003c6931834794f0cb3700000000000000000000000000000000000000000000050b032fb82e834e620e",
          "blockHash": "0xec94cc32a99ac0e78867ee30c71e5b97ed082400d2e147c93ddf348774867ad6",
          "blockNumber": "0x3ad0177",
          "transactionHash": "0x93107622470082449b922512d274a0052c43e71db77d9a41f164a4ff4f162858",
          "transactionIndex": "0x25",
          "logIndex": "0x80",
          "removed": false
        }
      ],
      "logsBloom": "0x00000000000000000000000000000000000000000000000010000004000000000000000000000020000000000000000000008000020000000000000000200000000000000000000000000000000000800000000000000000000110000000000000000000000000000008000000000000000000000000000080000000008000000000000000000000000000000000000000000000000000000000000000000000220100000000000000000000000000000000000000000000000000000000004000000000000000000041000400000000000000000000000000100000000000000010000000000000080000040000000000000000000000000000000000100000",
      "type": "0x2",
      "transactionHash": "0x93107622470082449b922512d274a0052c43e71db77d9a41f164a4ff4f162858",
      "transactionIndex": "0x25",
      "blockHash": "0xec94cc32a99ac0e78867ee30c71e5b97ed082400d2e147c93ddf348774867ad6",
      "blockNumber": "0x3ad0177",
      "gasUsed": "0x6794",
      "effectiveGasPrice": "0x6fd08a18c",
      "from": "0xf51f97a20c4e00fd4d8f85462cf344bb152b10a3",
      "to": "0xf985a23edd3982c759aa7a027e70275ae003ecec",
      "contractAddress": null
    }
  ],
  "libraries": [],
  "pending": [],
  "returns": {},
  "timestamp": 1726005462,
  "chain": 137,
  "commit": "5b167d2"
}