{
  "transactions": [
    {
      "hash": "0xdde314b61deb8e1fbb94b24d5e6d156744491f49bafa49ac6bb04a04a0f07f51",
      "transactionType": "CALL",
      "contractName": null,
      "contractAddress": "0x6b339d10ee1dc7dd9c37a121a9b8aa57c61b5fc6",
      "function": "transferFrom(address,address,uint256)",
      "arguments": [
        "0xF51F97A20C4e00fd4d8F85462cf344Bb152B10a3",
        "0x5b73C5498c1E3b4dbA84de0F1833c4a029d90519",
        "2000000000000000000"
      ],
      "transaction": {
        "from": "0xf51f97a20c4e00fd4d8f85462cf344bb152b10a3",
        "to": "0x6b339d10ee1dc7dd9c37a121a9b8aa57c61b5fc6",
        "gas": "0x11dde",
        "value": "0x0",
        "input": "0x23b872dd000000000000000000000000f51f97a20c4e00fd4d8f85462cf344bb152b10a30000000000000000000000005b73c5498c1e3b4dba84de0f1833c4a029d905190000000000000000000000000000000000000000000000001bc16d674ec80000",
        "nonce": "0x74",
        "chainId": "0x13882"
      },
      "additionalContracts": [],
      "isFixedGasLimit": false
    }
  ],
  "receipts": [
    {
      "status": "0x1",
      "cumulativeGasUsed": "0xcef7",
      "logs": [
        {
          "address": "0x6b339d10ee1dc7dd9c37a121a9b8aa57c61b5fc6",
          "topics": [
            "0xddf252ad1be2c89b69c2b068fc378daa952ba7f163c4a11628f55a4df523b3ef",
            "0x000000000000000000000000f51f97a20c4e00fd4d8f85462cf344bb152b10a3",
            "0x0000000000000000000000005b73c5498c1e3b4dba84de0f1833c4a029d90519"
          ],
          "data": "0x0000000000000000000000000000000000000000000000001bc16d674ec80000",
          "blockHash": "0x2396147731450bf162d9e33b584045eec876c2a62d9a2ca528fe3abd81fbdd31",
          "blockNumber": "0xaded75",
          "transactionHash": "0xdde314b61deb8e1fbb94b24d5e6d156744491f49bafa49ac6bb04a04a0f07f51",
          "transactionIndex": "0x0",
          "logIndex": "0x0",
          "removed": false
        },
        {
          "address": "0x0000000000000000000000000000000000001010",
          "topics": [
            "0x4dfe1bbbcf077ddc3e01291eea2d5c70c2b422b415d95645b9adcfd678cb1d63",
            "0x0000000000000000000000000000000000000000000000000000000000001010",
            "0x000000000000000000000000f51f97a20c4e00fd4d8f85462cf344bb152b10a3",
            "0x00000000000000000000000009207a6efee346cb3e4a54ac18523e3715d38b3f"
          ],
          "data": "0x0000000000000000000000000000000000000000000000000005d5d20bb70b090000000000000000000000000000000000000000000000056dd39808767b94d800000000000000000000000000000000000000000000024c92eced69fee27fc30000000000000000000000000000000000000000000000056dcdc2366ac489cf00000000000000000000000000000000000000000000024c92f2c33c0a998acc",
          "blockHash": "0x2396147731450bf162d9e33b584045eec876c2a62d9a2ca528fe3abd81fbdd31",
          "blockNumber": "0xaded75",
          "transactionHash": "0xdde314b61deb8e1fbb94b24d5e6d156744491f49bafa49ac6bb04a04a0f07f51",
          "transactionIndex": "0x0",
          "logIndex": "0x1",
          "removed": false
        }
      ],
      "logsBloom": "0x00000000000000000000000000000000000000000000000000000000000000000000000000000000000000000000000000008000020000010000010800000000000000000000000000000008000000800000000000000000000100000000000000000000000000000000000000000000008000000000000080000010000000000000000000000000000000000000000000004000000000000000000000000000200100000000000000000002000000000000000000000000000000000000004000000002000000000041000000000000000000000000000000100000000000000000000000000000000000010000000000000000000000000000000008100200",
      "type": "0x2",
      "transactionHash": "0xdde314b61deb8e1fbb94b24d5e6d156744491f49bafa49ac6bb04a04a0f07f51",
      "transactionIndex": "0x0",
      "blockHash": "0x2396147731450bf162d9e33b584045eec876c2a62d9a2ca528fe3abd81fbdd31",
      "blockNumber": "0xaded75",
      "gasUsed": "0xcef7",
      "effectiveGasPrice": "0x737be760e",
      "from": "0xf51f97a20c4e00fd4d8f85462cf344bb152b10a3",
      "to": "0x6b339d10ee1dc7dd9c37a121a9b8aa57c61b5fc6",
      "contractAddress": null
    }
  ],
  "libraries": [],
  "pending": [],
  "returns": {},
  "timestamp": 1725115834,
  "chain": 80002,
  "commit": "aa2930f"
}