{
  "transactions": [
    {
      "hash": "0xe20f796dfd73c3e473a12c8231bcf5a1e72b050ce4869f8f613c34586b3515f8",
      "transactionType": "CALL",
      "contractName": null,
      "contractAddress": "0x6b339d10ee1dc7dd9c37a121a9b8aa57c61b5fc6",
      "function": "approve(address,uint256)",
      "arguments": [
        "0xC76Ce18B4bfcCeC0dA5F9126C0F823ef672161A6",
        "2000000000000000000"
      ],
      "transaction": {
        "from": "0xf51f97a20c4e00fd4d8f85462cf344bb152b10a3",
        "to": "0x6b339d10ee1dc7dd9c37a121a9b8aa57c61b5fc6",
        "gas": "0xfa70",
        "value": "0x0",
        "input": "0x095ea7b3000000000000000000000000c76ce18b4bfccec0da5f9126c0f823ef672161a60000000000000000000000000000000000000000000000001bc16d674ec80000",
        "nonce": "0x76",
        "chainId": "0x13882"
      },
      "additionalContracts": [],
      "isFixedGasLimit": false
    }
  ],
  "receipts": [
    {
      "status": "0x1",
      "cumulativeGasUsed": "0x1b542",
      "logs": [
        {
          "address": "0x6b339d10ee1dc7dd9c37a121a9b8aa57c61b5fc6",
          "topics": [
            "0x8c5be1e5ebec7d5bd14f71427d1e84f3dd0314c0f7b2291e5b200ac8c7c3b925",
            "0x000000000000000000000000f51f97a20c4e00fd4d8f85462cf344bb152b10a3",
            "0x000000000000000000000000c76ce18b4bfccec0da5f9126c0f823ef672161a6"
          ],
          "data": "0x0000000000000000000000000000000000000000000000001bc16d674ec80000",
          "blockHash": "0x3c6c9b5951b45d193972928073772a74344078c587e0584eb8ab9d0f5b88c9c9",
          "blockNumber": "0xadeef6",
          "transactionHash": "0xe20f796dfd73c3e473a12c8231bcf5a1e72b050ce4869f8f613c34586b3515f8",
          "transactionIndex": "0x1",
          "logIndex": "0x2",
          "removed": false
        },
        {
          "address": "0x0000000000000000000000000000000000001010",
          "topics": [
            "0x4dfe1bbbcf077ddc3e01291eea2d5c70c2b422b415d95645b9adcfd678cb1d63",
            "0x0000000000000000000000000000000000000000000000000000000000001010",
            "0x000000000000000000000000f51f97a20c4e00fd4d8f85462cf344bb152b10a3",
            "0x0000000000000000000000006dc2dd54f24979ec26212794c71afefed722280c"
          ],
          "data": "0x00000000000000000000000000000000000000000000000000049e05e15f80000000000000000000000000000000000000000000000000056dc0a08f9caf7c6d0000000000000000000000000000000000000000000002bc853e2bb33a05194f0000000000000000000000000000000000000000000000056dbc0289bb4ffc6d0000000000000000000000000000000000000000000002bc8542c9b91b64994f",
          "blockHash": "0x3c6c9b5951b45d193972928073772a74344078c587e0584eb8ab9d0f5b88c9c9",
          "blockNumber": "0xadeef6",
          "transactionHash": "0xe20f796dfd73c3e473a12c8231bcf5a1e72b050ce4869f8f613c34586b3515f8",
          "transactionIndex": "0x1",
          "logIndex": "0x3",
          "removed": false
        }
      ],
      "logsBloom": "0x00000000000000000000000000000000000000000002000008000000000000000000000000000000000000000000000000008000020000010000000800200000000000000000000000000000000000800000000000000000000100080000000000000000000000000000000000000000000000000000000080000000000000020000000000000000000000000040000000000000000000000000000000000000220100000000000000000000000000000000000000000000000000000000004000000000000000000041000000200000000000000000000000100000000000000010000000000000000000000000000000000000000000000000000008100000",
      "type": "0x2",
      "transactionHash": "0xe20f796dfd73c3e473a12c8231bcf5a1e72b050ce4869f8f613c34586b3515f8",
      "transactionIndex": "0x1",
      "blockHash": "0x3c6c9b5951b45d193972928073772a74344078c587e0584eb8ab9d0f5b88c9c9",
      "blockNumber": "0xadeef6",
      "gasUsed": "0xb550",
      "effectiveGasPrice": "0x684ee180f",
      "from": "0xf51f97a20c4e00fd4d8f85462cf344bb152b10a3",
      "to": "0x6b339d10ee1dc7dd9c37a121a9b8aa57c61b5fc6",
      "contractAddress": null
    }
  ],
  "libraries": [],
  "pending": [],
  "returns": {},
  "timestamp": 1725116656,
  "chain": 80002,
  "commit": "aa2930f"
}