{
  "transactions": [
    {
      "hash": "0xddafc489a7dcf7e8f2aab062e09d9c8b563b8644696f0be677211e2c75a2bd56",
      "transactionType": "CALL",
      "contractName": null,
      "contractAddress": "0x6b339d10ee1dc7dd9c37a121a9b8aa57c61b5fc6",
      "function": "approve(address,uint256)",
      "arguments": [
        "0xC76Ce18B4bfcCeC0dA5F9126C0F823ef672161A6",
        "2000000000000000000"
      ],
      "transaction": {
        "from": "0xf51f97a20c4e00fd4d8f85462cf344bb152b10a3",
        "to": "0x6b339d10ee1dc7dd9c37a121a9b8aa57c61b5fc6",
        "gas": "0xfa70",
        "value": "0x0",
        "input": "0x095ea7b3000000000000000000000000c76ce18b4bfccec0da5f9126c0f823ef672161a60000000000000000000000000000000000000000000000001bc16d674ec80000",
        "nonce": "0x73",
        "chainId": "0x13882"
      },
      "additionalContracts": [],
      "isFixedGasLimit": false
    }
  ],
  "receipts": [
    {
      "status": "0x1",
      "cumulativeGasUsed": "0x1e1f4",
      "logs": [
        {
          "address": "0x6b339d10ee1dc7dd9c37a121a9b8aa57c61b5fc6",
          "topics": [
            "0x8c5be1e5ebec7d5bd14f71427d1e84f3dd0314c0f7b2291e5b200ac8c7c3b925",
            "0x000000000000000000000000f51f97a20c4e00fd4d8f85462cf344bb152b10a3",
            "0x000000000000000000000000c76ce18b4bfccec0da5f9126c0f823ef672161a6"
          ],
          "data": "0x0000000000000000000000000000000000000000000000001bc16d674ec80000",
          "blockHash": "0xe8b4b5c73190fceaa3425acb1568bd74850d724102894a2a9c77a37bf23c9473",
          "blockNumber": "0xaded33",
          "transactionHash": "0xddafc489a7dcf7e8f2aab062e09d9c8b563b8644696f0be677211e2c75a2bd56",
          "transactionIndex": "0x1",
          "logIndex": "0x2",
          "removed": false
        },
        {
          "address": "0x0000000000000000000000000000000000001010",
          "topics": [
            "0x4dfe1bbbcf077ddc3e01291eea2d5c70c2b422b415d95645b9adcfd678cb1d63",
            "0x0000000000000000000000000000000000000000000000000000000000001010",
            "0x000000000000000000000000f51f97a20c4e00fd4d8f85462cf344bb152b10a3",
            "0x000000000000000000000000915a2284d28bd93de7d6f31173b981204bb666e6"
          ],
          "data": "0x0000000000000000000000000000000000000000000000000004f27403c1c0000000000000000000000000000000000000000000000000056dd88a7c7a47f488000000000000000000000000000000000000000000000374362413bc6dc1d65a0000000000000000000000000000000000000000000000056dd3980876863488000000000000000000000000000000000000000000000374362906307183965a",
          "blockHash": "0xe8b4b5c73190fceaa3425acb1568bd74850d724102894a2a9c77a37bf23c9473",
          "blockNumber": "0xaded33",
          "transactionHash": "0xddafc489a7dcf7e8f2aab062e09d9c8b563b8644696f0be677211e2c75a2bd56",
          "transactionIndex": "0x1",
          "logIndex": "0x3",
          "removed": false
        }
      ],
      "logsBloom": "0x00000000000000000010000000000000000000000002000008000000000000000000000000000000000000000000000000008000020000010000000800200000000000000000000000000000000000800000000000000000000100000000000000000000000000000000000000000000000000000000000080000000000000000000000000000000000000000000000000000000000000000000000000000000220100000000000000000000000000000000000000000000000000000000004000000000000000000041000000200000000002000000000000100000000000000010000000000000000000000000000000000000400000000000000008100000",
      "type": "0x2",
      "transactionHash": "0xddafc489a7dcf7e8f2aab062e09d9c8b563b8644696f0be677211e2c75a2bd56",
      "transactionIndex": "0x1",
      "blockHash": "0xe8b4b5c73190fceaa3425acb1568bd74850d724102894a2a9c77a37bf23c9473",
      "blockNumber": "0xaded33",
      "gasUsed": "0xb550",
      "effectiveGasPrice": "0x6fc23ac0f",
      "from": "0xf51f97a20c4e00fd4d8f85462cf344bb152b10a3",
      "to": "0x6b339d10ee1dc7dd9c37a121a9b8aa57c61b5fc6",
      "contractAddress": null
    }
  ],
  "libraries": [],
  "pending": [],
  "returns": {},
  "timestamp": 1725115694,
  "chain": 80002,
  "commit": "aa2930f"
}