{
  "transactions": [
    {
      "hash": "0x921e0730198b585a56504fd45b7e1fdad5f54150a9bb58815474b1d1c7b2ee80",
      "transactionType": "CALL",
      "contractName": null,
      "contractAddress": "0x6b339d10ee1dc7dd9c37a121a9b8aa57c61b5fc6",
      "function": "approve(address,uint256)",
      "arguments": [
        "0xF51F97A20C4e00fd4d8F85462cf344Bb152B10a3",
        "2000000000000000000"
      ],
      "transaction": {
        "from": "0xf51f97a20c4e00fd4d8f85462cf344bb152b10a3",
        "to": "0x6b339d10ee1dc7dd9c37a121a9b8aa57c61b5fc6",
        "gas": "0xfa5f",
        "value": "0x0",
        "input": "0x095ea7b3000000000000000000000000f51f97a20c4e00fd4d8f85462cf344bb152b10a30000000000000000000000000000000000000000000000001bc16d674ec80000",
        "nonce": "0x72",
        "chainId": "0x13882"
      },
      "additionalContracts": [],
      "isFixedGasLimit": false
    }
  ],
  "receipts": [
    {
      "status": "0x1",
      "cumulativeGasUsed": "0xb544",
      "logs": [
        {
          "address": "0x6b339d10ee1dc7dd9c37a121a9b8aa57c61b5fc6",
          "topics": [
            "0x8c5be1e5ebec7d5bd14f71427d1e84f3dd0314c0f7b2291e5b200ac8c7c3b925",
            "0x000000000000000000000000f51f97a20c4e00fd4d8f85462cf344bb152b10a3",
            "0x000000000000000000000000f51f97a20c4e00fd4d8f85462cf344bb152b10a3"
          ],
          "data": "0x0000000000000000000000000000000000000000000000001bc16d674ec80000",
          "blockHash": "0xe2974d00ca547b05e17303378efae58ec9120779c6c1743e44f95a510ec3cf0b",
          "blockNumber": "0xaded1a",
          "transactionHash": "0x921e0730198b585a56504fd45b7e1fdad5f54150a9bb58815474b1d1c7b2ee80",
          "transactionIndex": "0x0",
          "logIndex": "0x0",
          "removed": false
        },
        {
          "address": "0x0000000000000000000000000000000000001010",
          "topics": [
            "0x4dfe1bbbcf077ddc3e01291eea2d5c70c2b422b415d95645b9adcfd678cb1d63",
            "0x0000000000000000000000000000000000000000000000000000000000001010",
            "0x000000000000000000000000f51f97a20c4e00fd4d8f85462cf344bb152b10a3",
            "0x00000000000000000000000009207a6efee346cb3e4a54ac18523e3715d38b3f"
          ],
          "data": "0x00000000000000000000000000000000000000000000000000051c54780558000000000000000000000000000000000000000000000000056ddda6d0f257eb8400000000000000000000000000000000000000000000024c9275a62dea2520830000000000000000000000000000000000000000000000056dd88a7c7a52938400000000000000000000000000000000000000000000024c927ac282622a7883",
          "blockHash": "0xe2974d00ca547b05e17303378efae58ec9120779c6c1743e44f95a510ec3cf0b",
          "blockNumber": "0xaded1a",
          "transactionHash": "0x921e0730198b585a56504fd45b7e1fdad5f54150a9bb58815474b1d1c7b2ee80",
          "transactionIndex": "0x0",
          "logIndex": "0x1",
          "removed": false
        }
      ],
      "logsBloom": "0x00000000000000000000000000000000000000000000000000000000000000000000000000000000000000000000000000008000020000010000010800200000000000000000000000000000000000800000000000000000000100000000000000000000000000000000000000000000000000000000000080000000000000000000000000000000000000000000000000004000000000000000000000000000220100000000000000000000000000000000000000000000000000000000004000000000000000000041000000000000000000000000000000100000000000000010000000000000000000010000000000000000000000000000000008100000",
      "type": "0x2",
      "transactionHash": "0x921e0730198b585a56504fd45b7e1fdad5f54150a9bb58815474b1d1c7b2ee80",
      "transactionIndex": "0x0",
      "blockHash": "0xe2974d00ca547b05e17303378efae58ec9120779c6c1743e44f95a510ec3cf0b",
      "blockNumber": "0xaded1a",
      "gasUsed": "0xb544",
      "effectiveGasPrice": "0x737be760f",
      "from": "0xf51f97a20c4e00fd4d8f85462cf344bb152b10a3",
      "to": "0x6b339d10ee1dc7dd9c37a121a9b8aa57c61b5fc6",
      "contractAddress": null
    }
  ],
  "libraries": [],
  "pending": [],
  "returns": {},
  "timestamp": 1725115640,
  "chain": 80002,
  "commit": "aa2930f"
}