{
  "transactions": [
    {
      "hash": "0xe83c2fce49cb6ba84044c4ed2fd852c3cb6c65e92352453d6f1768ce4db6abc5",
      "transactionType": "CALL",
      "contractName": null,
      "contractAddress": "0xf985a23edd3982c759aa7a027e70275ae003ecec",
      "function": "mint(address,uint256)",
      "arguments": [
        "0xF51F97A20C4e00fd4d8F85462cf344Bb152B10a3",
        "1000000000000000000000000000"
      ],
      "transaction": {
        "from": "0xf51f97a20c4e00fd4d8f85462cf344bb152b10a3",
        "to": "0xf985a23edd3982c759aa7a027e70275ae003ecec",
        "gas": "0xc525",
        "value": "0x0",
        "input": "0x40c10f19000000000000000000000000f51f97a20c4e00fd4d8f85462cf344bb152b10a30000000000000000000000000000000000000000033b2e3c9fd0803ce8000000",
        "nonce": "0x5f7",
        "chainId": "0x89"
      },
      "additionalContracts": [],
      "isFixedGasLimit": false
    }
  ],
  "receipts": [
    {
      "status": "0x1",
      "cumulativeGasUsed": "0x755783",
      "logs": [
        {
          "address": "0xf985a23edd3982c759aa7a027e70275ae003ecec",
          "topics": [
            "0xddf252ad1be2c89b69c2b068fc378daa952ba7f163c4a11628f55a4df523b3ef",
            "0x0000000000000000000000000000000000000000000000000000000000000000",
            "0x000000000000000000000000f51f97a20c4e00fd4d8f85462cf344bb152b10a3"
          ],
          "data": "0x0000000000000000000000000000000000000000033b2e3c9fd0803ce8000000",
          "blockHash": "0x5c0c295a0b2643da6aa9689899a4fc5eabb9e33ecda346c8e0e0b0bbfa8b76b6",
          "blockNumber": "0x3a82030",
          "transactionHash": "0xe83c2fce49cb6ba84044c4ed2fd852c3cb6c65e92352453d6f1768ce4db6abc5",
          "transactionIndex": "0x3a",
          "logIndex": "0x3c8",
          "removed": false
        },
        {
          "address": "0x0000000000000000000000000000000000001010",
          "topics": [
            "0x4dfe1bbbcf077ddc3e01291eea2d5c70c2b422b415d95645b9adcfd678cb1d63",
            "0x0000000000000000000000000000000000000000000000000000000000001010",
            "0x000000000000000000000000f51f97a20c4e00fd4d8f85462cf344bb152b10a3",
            "0x0000000000000000000000001d25c827abd466387bda00b429fe728627d6eee6"
          ],
          "data": "0x0000000000000000000000000000000000000000000000000003e5fc2e36e20000000000000000000000000000000000000000000000003dce89ab5edfde5ace0000000000000000000000000000000000000000000002f48b44b028ec63fe0300000000000000000000000000000000000000000000003dce85c562b1a778ce0000000000000000000000000000000000000000000002f48b4896251a9ae003",
          "blockHash": "0x5c0c295a0b2643da6aa9689899a4fc5eabb9e33ecda346c8e0e0b0bbfa8b76b6",
          "blockNumber": "0x3a82030",
          "transactionHash": "0xe83c2fce49cb6ba84044c4ed2fd852c3cb6c65e92352453d6f1768ce4db6abc5",
          "transactionIndex": "0x3a",
          "logIndex": "0x3c9",
          "removed": false
        }
      ],
      "logsBloom": "0x00000000000000000000000000000000000000000000000010000004000000000000000000000000000000000000000000008000020000000000000000000000000000000000000000000008000000800000000000000000000110000000000000000000020000000000000000000800000000000000000080000010008000000000000000000000000000000000000000000000000000000000000000000000200100000000000000000000000000000000000000000000000000000000004000000002000000000041000400000000000000000000000000100000000020000000000000000000000000040000000000000000000000000000000000100000",
      "type": "0x2",
      "transactionHash": "0xe83c2fce49cb6ba84044c4ed2fd852c3cb6c65e92352453d6f1768ce4db6abc5",
      "transactionIndex": "0x3a",
      "blockHash": "0x5c0c295a0b2643da6aa9689899a4fc5eabb9e33ecda346c8e0e0b0bbfa8b76b6",
      "blockNumber": "0x3a82030",
      "gasUsed": "0x8ebc",
      "effectiveGasPrice": "0x6fded6f99",
      "from": "0xf51f97a20c4e00fd4d8f85462cf344bb152b10a3",
      "to": "0xf985a23edd3982c759aa7a027e70275ae003ecec",
      "contractAddress": null
    }
  ],
  "libraries": [],
  "pending": [],
  "returns": {},
  "timestamp": 1725308610,
  "chain": 137,
  "commit": "b23624f"
}