{
  "transactions": [
    {
      "hash": "0xfec6cd64ff85765a845300a134fa17fd997e030958eb5c86e504cfa7e51b3b03",
      "transactionType": "CALL",
      "contractName": null,
      "contractAddress": "0xde59b204d83e7f0dd580439912eb28ec9333c24e",
      "function": "mint(address,uint256)",
      "arguments": [
        "0xF51F97A20C4e00fd4d8F85462cf344Bb152B10a3",
        "1000000000000000000000000"
      ],
      "transaction": {
        "from": "0xf51f97a20c4e00fd4d8f85462cf344bb152b10a3",
        "to": "0xde59b204d83e7f0dd580439912eb28ec9333c24e",
        "gas": "0xecc1",
        "value": "0x0",
        "input": "0x40c10f19000000000000000000000000f51f97a20c4e00fd4d8f85462cf344bb152b10a300000000000000000000000000000000000000000000d3c21bcecceda1000000",
        "nonce": "0x6e6",
        "chainId": "0x89"
      },
      "additionalContracts": [],
      "isFixedGasLimit": false
    }
  ],
  "receipts": [
    {
      "status": "0x1",
      "cumulativeGasUsed": "0xd1e0ed",
      "logs": [
        {
          "address": "0xde59b204d83e7f0dd580439912eb28ec9333c24e",
          "topics": [
            "0xddf252ad1be2c89b69c2b068fc378daa952ba7f163c4a11628f55a4df523b3ef",
            "0x0000000000000000000000000000000000000000000000000000000000000000",
            "0x000000000000000000000000f51f97a20c4e00fd4d8f85462cf344bb152b10a3"
          ],
          "data": "0x00000000000000000000000000000000000000000000d3c21bcecceda1000000",
          "blockHash": "0xe7dd026222c80851b485e2707352c45db63e89c2d3d58e385150c18bae5713a5",
          "blockNumber": "0x3b8c494",
          "transactionHash": "0xfec6cd64ff85765a845300a134fa17fd997e030958eb5c86e504cfa7e51b3b03",
          "transactionIndex": "0x29",
          "logIndex": "0x6ce",
          "removed": false
        },
        {
          "address": "0x0000000000000000000000000000000000001010",
          "topics": [
            "0x4dfe1bbbcf077ddc3e01291eea2d5c70c2b422b415d95645b9adcfd678cb1d63",
            "0x0000000000000000000000000000000000000000000000000000000000001010",
            "0x000000000000000000000000f51f97a20c4e00fd4d8f85462cf344bb152b10a3",
            "0x00000000000000000000000069f5c4d08f6bc8cd29fe5f004d46fb566270868d"
          ],
          "data": "0x00000000000000000000000000000000000000000000000000046c15bb8bf27100000000000000000000000000000000000000000000003c5b51a459c76c776a000000000000000000000000000000000000000000000052ef59b7847c6d236200000000000000000000000000000000000000000000003c5b4d38440be084f9000000000000000000000000000000000000000000000052ef5e239a37f915d3",
          "blockHash": "0xe7dd026222c80851b485e2707352c45db63e89c2d3d58e385150c18bae5713a5",
          "blockNumber": "0x3b8c494",
          "transactionHash": "0xfec6cd64ff85765a845300a134fa17fd997e030958eb5c86e504cfa7e51b3b03",
          "transactionIndex": "0x29",
          "logIndex": "0x6cf",
          "removed": false
        }
      ],
      "logsBloom": "0x00000000000000000000000002000000000000000000000000000000000000000000000000000000200000000000000000008000020000000000000000000000000000000000000000000008000040800000000000020000000100000000000000000000020000000000000000000800000000000000000080000010000000000000000000000000000040000000000000000000000000000000000000000000200100000000000000000000000000000000000000000000000000000000044000000002000000000041000000000000000000000000000000100000000020000000000000000000000000000000000000000000000000000000000000100000",
      "type": "0x2",
      "transactionHash": "0xfec6cd64ff85765a845300a134fa17fd997e030958eb5c86e504cfa7e51b3b03",
      "transactionIndex": "0x29",
      "blockHash": "0xe7dd026222c80851b485e2707352c45db63e89c2d3d58e385150c18bae5713a5",
      "blockNumber": "0x3b8c494",
      "gasUsed": "0xa1e3",
      "effectiveGasPrice": "0x6fe39bae7",
      "from": "0xf51f97a20c4e00fd4d8f85462cf344bb152b10a3",
      "to": "0xde59b204d83e7f0dd580439912eb28ec9333c24e",
      "contractAddress": null
    }
  ],
  "libraries": [],
  "pending": [],
  "returns": {},
  "timestamp": 1727656865,
  "chain": 137,
  "commit": "a34996c"
}