{
  "transactions": [
    {
      "hash": "0xa126a90709ad6a899de6eeaaaadbfd69f5828a1809441c6429c539df7d977dc2",
      "transactionType": "CALL",
      "contractName": null,
      "contractAddress": "0x183dfbd4e3880457bed73d143fbeafa24d234531",
      "function": "buy(address)",
      "arguments": [
        "0x714df05138bF7189865601FFdbfaabD7EB24eD1D"
      ],
      "transaction": {
        "from": "0xf51f97a20c4e00fd4d8f85462cf344bb152b10a3",
        "to": "0x183dfbd4e3880457bed73d143fbeafa24d234531",
        "gas": "0x23697",
        "value": "0x38d7ea4c68000",
        "input": "0xf088d547000000000000000000000000714df05138bf7189865601ffdbfaabd7eb24ed1d",
        "nonce": "0x42",
        "chainId": "0x13882"
      },
      "additionalContracts": [],
      "isFixedGasLimit": false
    }
  ],
  "receipts": [
    {
      "status": "0x1",
      "cumulativeGasUsed": "0x19a34",
      "logs": [
        {
          "address": "0x0000000000000000000000000000000000001010",
          "topics": [
            "0xe6497e3ee548a3372136af2fcb0696db31fc6cf20260707645068bd3fe97f3c4",
            "0x0000000000000000000000000000000000000000000000000000000000001010",
            "0x000000000000000000000000f51f97a20c4e00fd4d8f85462cf344bb152b10a3",
            "0x000000000000000000000000183dfbd4e3880457bed73d143fbeafa24d234531"
          ],
          "data": "0x00000000000000000000000000000000000000000000000000038d7ea4c6800000000000000000000000000000000000000000000000000006d085cb32453950000000000000000000000000000000000000000000000000000000000000000000000000000000000000000000000000000000000000000006ccf84c8d7eb95000000000000000000000000000000000000000000000000000038d7ea4c68000",
          "blockHash": "0x8f0e98985e5a62a4cc4ccd28daa5785dcad0bdf2280dc98e02f6b25a8fb556ef",
          "blockNumber": "0xab2698",
          "transactionHash": "0xa126a90709ad6a899de6eeaaaadbfd69f5828a1809441c6429c539df7d977dc2",
          "transactionIndex": "0x0",
          "logIndex": "0x0",
          "removed": false
        },
        {
          "address": "0x714df05138bf7189865601ffdbfaabd7eb24ed1d",
          "topics": [
            "0xddf252ad1be2c89b69c2b068fc378daa952ba7f163c4a11628f55a4df523b3ef",
            "0x0000000000000000000000000000000000000000000000000000000000000000",
            "0x000000000000000000000000f51f97a20c4e00fd4d8f85462cf344bb152b10a3"
          ],
          "data": "0x000000000000000000000000000000000000000000000cf9bbcb4ad1dce02000",
          "blockHash": "0x8f0e98985e5a62a4cc4ccd28daa5785dcad0bdf2280dc98e02f6b25a8fb556ef",
          "blockNumber": "0xab2698",
          "transactionHash": "0xa126a90709ad6a899de6eeaaaadbfd69f5828a1809441c6429c539df7d977dc2",
          "transactionIndex": "0x0",
          "logIndex": "0x1",
          "removed": false
        },
        {
          "address": "0x0000000000000000000000000000000000001010",
          "topics": [
            "0x4dfe1bbbcf077ddc3e01291eea2d5c70c2b422b415d95645b9adcfd678cb1d63",
            "0x0000000000000000000000000000000000000000000000000000000000001010",
            "0x000000000000000000000000f51f97a20c4e00fd4d8f85462cf344bb152b10a3",
            "0x00000000000000000000000009207a6efee346cb3e4a54ac18523e3715d38b3f"
          ],
          "data": "0x000000000000000000000000000000000000000000000000000b90be5baa5dcc00000000000000000000000000000000000000000000000006e07f4c2c9fcf9200000000000000000000000000000000000000000000023e865bd05dd49a259c00000000000000000000000000000000000000000000000006d4ee8dd0f571c600000000000000000000000000000000000000000000023e8667611c30448368",
          "blockHash": "0x8f0e98985e5a62a4cc4ccd28daa5785dcad0bdf2280dc98e02f6b25a8fb556ef",
          "blockNumber": "0xab2698",
          "transactionHash": "0xa126a90709ad6a899de6eeaaaadbfd69f5828a1809441c6429c539df7d977dc2",
          "transactionIndex": "0x0",
          "logIndex": "0x2",
          "removed": false
        }
      ],
      "logsBloom": "0x00000000000000000000000000000000000000000000000000000010000000000000000000000000000000100000000000008000020000000000010000000000000000000000000000000008000000800000000000000000000100002000000000000000020000000000000000000800000000000000000080000010000000000000000000000000000000000000000000804000000000000000000000000000200100000000000000000000000000480000000000000000000000000000004000000002000000000041000000000000000000000000800000108000000020000000040000000000000000010000000000000000000000000000000000100000",
      "type": "0x2",
      "transactionHash": "0xa126a90709ad6a899de6eeaaaadbfd69f5828a1809441c6429c539df7d977dc2",
      "transactionIndex": "0x0",
      "blockHash": "0x8f0e98985e5a62a4cc4ccd28daa5785dcad0bdf2280dc98e02f6b25a8fb556ef",
      "blockNumber": "0xab2698",
      "gasUsed": "0x19a34",
      "effectiveGasPrice": "0x737be760e",
      "from": "0xf51f97a20c4e00fd4d8f85462cf344bb152b10a3",
      "to": "0x183dfbd4e3880457bed73d143fbeafa24d234531",
      "contractAddress": null
    }
  ],
  "libraries": [],
  "pending": [],
  "returns": {},
  "timestamp": 1724727783,
  "chain": 80002,
  "commit": "ec07c6b"
}