{
  "transactions": [
    {
      "hash": "0x1a1f91a613b4b28e168859ba7bce2538444e2e103c7d7f33ca49176e0312df92",
      "transactionType": "CALL",
      "contractName": null,
      "contractAddress": "0x123f263a89acbb9a16a2fbbc0cc4c5ddde7d826f",
      "function": "buy(address)",
      "arguments": [
        "0x83DaCCDF45796D69DeDdD58eA1CD96395456c661"
      ],
      "transaction": {
        "from": "0xf51f97a20c4e00fd4d8f85462cf344bb152b10a3",
        "to": "0x123f263a89acbb9a16a2fbbc0cc4c5ddde7d826f",
        "gas": "0x14516",
        "value": "0xe35fa931a0000",
        "input": "0xf088d54700000000000000000000000083daccdf45796d69deddd58ea1cd96395456c661",
        "nonce": "0x4c",
        "chainId": "0x13882"
      },
      "additionalContracts": [],
      "isFixedGasLimit": false
    }
  ],
  "receipts": [
    {
      "status": "0x1",
      "cumulativeGasUsed": "0x13fe8",
      "logs": [
        {
          "address": "0x0000000000000000000000000000000000001010",
          "topics": [
            "0xe6497e3ee548a3372136af2fcb0696db31fc6cf20260707645068bd3fe97f3c4",
            "0x0000000000000000000000000000000000000000000000000000000000001010",
            "0x000000000000000000000000f51f97a20c4e00fd4d8f85462cf344bb152b10a3",
            "0x000000000000000000000000123f263a89acbb9a16a2fbbc0cc4c5ddde7d826f"
          ],
          "data": "0x000000000000000000000000000000000000000000000000000e35fa931a00000000000000000000000000000000000000000000000000000e9c345bb4511ce2000000000000000000000000000000000000000000000000000e35fa931a00000000000000000000000000000000000000000000000000000e8dfe6121371ce2000000000000000000000000000000000000000000000000001c6bf526340000",
          "blockHash": "0x96df56826ecde97a167b197163a202ccc7144e24aafac9fedd5674a61b9ba4cc",
          "blockNumber": "0xacb1fb",
          "transactionHash": "0x1a1f91a613b4b28e168859ba7bce2538444e2e103c7d7f33ca49176e0312df92",
          "transactionIndex": "0x1",
          "logIndex": "0x1",
          "removed": false
        },
        {
          "address": "0x83daccdf45796d69deddd58ea1cd96395456c661",
          "topics": [
            "0xddf252ad1be2c89b69c2b068fc378daa952ba7f163c4a11628f55a4df523b3ef",
            "0x0000000000000000000000000000000000000000000000000000000000000000",
            "0x000000000000000000000000f51f97a20c4e00fd4d8f85462cf344bb152b10a3"
          ],
          "data": "0x000000000000000000000000000000000000000000000015af1d62df48ba9c00",
          "blockHash": "0x96df56826ecde97a167b197163a202ccc7144e24aafac9fedd5674a61b9ba4cc",
          "blockNumber": "0xacb1fb",
          "transactionHash": "0x1a1f91a613b4b28e168859ba7bce2538444e2e103c7d7f33ca49176e0312df92",
          "transactionIndex": "0x1",
          "logIndex": "0x2",
          "removed": false
        },
        {
          "address": "0x0000000000000000000000000000000000001010",
          "topics": [
            "0x4dfe1bbbcf077ddc3e01291eea2d5c70c2b422b415d95645b9adcfd678cb1d63",
            "0x0000000000000000000000000000000000000000000000000000000000001010",
            "0x000000000000000000000000f51f97a20c4e00fd4d8f85462cf344bb152b10a3",
            "0x0000000000000000000000004ca9ff871c7aa1e7b64e1eae110835f68d6a0bd4"
          ],
          "data": "0x00000000000000000000000000000000000000000000000000066bf75ba8059c0000000000000000000000000000000000000000000000000ea5130ea8bde4e2000000000000000000000000000000000000000000000294d75332ab50f86fa90000000000000000000000000000000000000000000000000e9ea7174d15df46000000000000000000000000000000000000000000000294d7599ea2aca07545",
          "blockHash": "0x96df56826ecde97a167b197163a202ccc7144e24aafac9fedd5674a61b9ba4cc",
          "blockNumber": "0xacb1fb",
          "transactionHash": "0x1a1f91a613b4b28e168859ba7bce2538444e2e103c7d7f33ca49176e0312df92",
          "transactionIndex": "0x1",
          "logIndex": "0x3",
          "removed": false
        }
      ],
      "logsBloom": "0x00000000000000000000000000000000000000000000000000000000000000000000000000000000000000100000000020808000020000000000000000000000000000000000000000000008000000800000000000000000000100000000000000000000020000000000000000000800000020000000000080000010000000000000000000000000000000000000000400008000000000000000000400000000200100000000040000000000000000000400000000000000000000000000004000000002000000000041000000000000000000000000800000108000000020000000000000000000000800000000000000000000000000000000000000100000",
      "type": "0x2",
      "transactionHash": "0x1a1f91a613b4b28e168859ba7bce2538444e2e103c7d7f33ca49176e0312df92",
      "transactionIndex": "0x1",
      "blockHash": "0x96df56826ecde97a167b197163a202ccc7144e24aafac9fedd5674a61b9ba4cc",
      "blockNumber": "0xacb1fb",
      "gasUsed": "0xeb5c",
      "effectiveGasPrice": "0x6fc23ac00",
      "from": "0xf51f97a20c4e00fd4d8f85462cf344bb152b10a3",
      "to": "0x123f263a89acbb9a16a2fbbc0cc4c5ddde7d826f",
      "contractAddress": null
    }
  ],
  "libraries": [],
  "pending": [],
  "returns": {},
  "timestamp": 1724943627,
  "chain": 80002,
  "commit": "c1ea02c"
}