{
  "transactions": [
    {
      "hash": "0x83cb5541529379a34a8b0c4c5bf51478caecbc245cac84a4dc904a4089f425e8",
      "transactionType": "CALL",
      "contractName": null,
      "contractAddress": "0x183dfbd4e3880457bed73d143fbeafa24d234531",
      "function": "buy(address)",
      "arguments": [
        "0x714df05138bF7189865601FFdbfaabD7EB24eD1D"
      ],
      "transaction": {
        "from": "0xf51f97a20c4e00fd4d8f85462cf344bb152b10a3",
        "to": "0x183dfbd4e3880457bed73d143fbeafa24d234531",
        "gas": "0x121cd",
        "value": "0x38d7ea4c68000",
        "input": "0xf088d547000000000000000000000000714df05138bf7189865601ffdbfaabd7eb24ed1d",
        "nonce": "0x43",
        "chainId": "0x13882"
      },
      "additionalContracts": [],
      "isFixedGasLimit": false
    }
  ],
  "receipts": [
    {
      "status": "0x1",
      "cumulativeGasUsed": "0x1cfd5d",
      "logs": [
        {
          "address": "0x0000000000000000000000000000000000001010",
          "topics": [
            "0xe6497e3ee548a3372136af2fcb0696db31fc6cf20260707645068bd3fe97f3c4",
            "0x0000000000000000000000000000000000000000000000000000000000001010",
            "0x000000000000000000000000f51f97a20c4e00fd4d8f85462cf344bb152b10a3",
            "0x000000000000000000000000183dfbd4e3880457bed73d143fbeafa24d234531"
          ],
          "data": "0x00000000000000000000000000000000000000000000000000038d7ea4c6800000000000000000000000000000000000000000000000000006c93559854c918400000000000000000000000000000000000000000000000000038d7ea4c6800000000000000000000000000000000000000000000000000006c5a7dae086118400000000000000000000000000000000000000000000000000071afd498d0000",
          "blockHash": "0xe41a80206b99f61a2117073d1971cfac9d57f7b61e68a46e94b08e19e35c8978",
          "blockNumber": "0xab26b7",
          "transactionHash": "0x83cb5541529379a34a8b0c4c5bf51478caecbc245cac84a4dc904a4089f425e8",
          "transactionIndex": "0x1",
          "logIndex": "0x3",
          "removed": false
        },
        {
          "address": "0x714df05138bf7189865601ffdbfaabd7eb24ed1d",
          "topics": [
            "0xddf252ad1be2c89b69c2b068fc378daa952ba7f163c4a11628f55a4df523b3ef",
            "0x0000000000000000000000000000000000000000000000000000000000000000",
            "0x000000000000000000000000f51f97a20c4e00fd4d8f85462cf344bb152b10a3"
          ],
          "data": "0x000000000000000000000000000000000000000000000cf987b0ed17d1abee00",
          "blockHash": "0xe41a80206b99f61a2117073d1971cfac9d57f7b61e68a46e94b08e19e35c8978",
          "blockNumber": "0xab26b7",
          "transactionHash": "0x83cb5541529379a34a8b0c4c5bf51478caecbc245cac84a4dc904a4089f425e8",
          "transactionIndex": "0x1",
          "logIndex": "0x4",
          "removed": false
        },
        {
          "address": "0x0000000000000000000000000000000000001010",
          "topics": [
            "0x4dfe1bbbcf077ddc3e01291eea2d5c70c2b422b415d95645b9adcfd678cb1d63",
            "0x0000000000000000000000000000000000000000000000000000000000001010",
            "0x000000000000000000000000f51f97a20c4e00fd4d8f85462cf344bb152b10a3",
            "0x0000000000000000000000006ab3d36c46ecfb9b9c0bd51cb1c3da5a2c81cea6"
          ],
          "data": "0x0000000000000000000000000000000000000000000000000005ea5fc9150e3000000000000000000000000000000000000000000000000006d1610f2c16e8ba0000000000000000000000000000000000000000000002bbeaf151ca77ff9d2b00000000000000000000000000000000000000000000000006cb76af6301da8a0000000000000000000000000000000000000000000002bbeaf73c2a4114ab5b",
          "blockHash": "0xe41a80206b99f61a2117073d1971cfac9d57f7b61e68a46e94b08e19e35c8978",
          "blockNumber": "0xab26b7",
          "transactionHash": "0x83cb5541529379a34a8b0c4c5bf51478caecbc245cac84a4dc904a4089f425e8",
          "transactionIndex": "0x1",
          "logIndex": "0x5",
          "removed": false
        }
      ],
      "logsBloom": "0x00000000080000000000000000000000000000000000000000000010000000000000000000000000000000100000000000008000020000000000000000000000000000080000000000000008000000800000000000000000000100002000000000000000020000000000000000000800000000000000000080000010000000000000000000000000000000000000000000800000000000000000000000000000200100000000000000000000000000480000000000000000000000000000004000000002000000000041000000000000000000010000800000108000000020000000040000000000000000000000000000000000000000000000000000100000",
      "type": "0x2",
      "transactionHash": "0x83cb5541529379a34a8b0c4c5bf51478caecbc245cac84a4dc904a4089f425e8",
      "transactionIndex": "0x1",
      "blockHash": "0xe41a80206b99f61a2117073d1971cfac9d57f7b61e68a46e94b08e19e35c8978",
      "blockNumber": "0xab26b7",
      "gasUsed": "0xd1d0",
      "effectiveGasPrice": "0x737be760e",
      "from": "0xf51f97a20c4e00fd4d8f85462cf344bb152b10a3",
      "to": "0x183dfbd4e3880457bed73d143fbeafa24d234531",
      "contractAddress": null
    }
  ],
  "libraries": [],
  "pending": [],
  "returns": {},
  "timestamp": 1724727861,
  "chain": 80002,
  "commit": "ec07c6b"
}