{
  "transactions": [
    {
      "hash": "0x7e30445bc94cc112cf5790bbdf9ba56c865e2b2a0657d09772885440c6b01e0c",
      "transactionType": "CALL",
      "contractName": null,
      "contractAddress": "0xa876ac551540d8c21f575ef2ebce582c82d0e294",
      "function": "buy(address)",
      "arguments": [
        "0xb487f7aA4d5DE24b217e73AE79d63B2066c15E6b"
      ],
      "transaction": {
        "from": "0xf51f97a20c4e00fd4d8f85462cf344bb152b10a3",
        "to": "0xa876ac551540d8c21f575ef2ebce582c82d0e294",
        "gas": "0x34ab8",
        "value": "0xe35fa931a0000",
        "input": "0xf088d547000000000000000000000000b487f7aa4d5de24b217e73ae79d63b2066c15e6b",
        "nonce": "0x55",
        "chainId": "0x13882"
      },
      "additionalContracts": [],
      "isFixedGasLimit": false
    }
  ],
  "receipts": [
    {
      "status": "0x1",
      "cumulativeGasUsed": "0x43d6e",
      "logs": [
        {
          "address": "0x0000000000000000000000000000000000001010",
          "topics": [
            "0xe6497e3ee548a3372136af2fcb0696db31fc6cf20260707645068bd3fe97f3c4",
            "0x0000000000000000000000000000000000000000000000000000000000001010",
            "0x000000000000000000000000f51f97a20c4e00fd4d8f85462cf344bb152b10a3",
            "0x000000000000000000000000a876ac551540d8c21f575ef2ebce582c82d0e294"
          ],
          "data": "0x000000000000000000000000000000000000000000000000000e35fa931a000000000000000000000000000000000000000000000000000574d3907ec522d2c2000000000000000000000000000000000000000000000000000000000000000000000000000000000000000000000000000000000000000574c55a843208d2c2000000000000000000000000000000000000000000000000000e35fa931a0000",
          "blockHash": "0x69af84452dd6a204348fc342056447e0f7f2046cbf19193e85ea4deb06d03e9b",
          "blockNumber": "0xad83f9",
          "transactionHash": "0x7e30445bc94cc112cf5790bbdf9ba56c865e2b2a0657d09772885440c6b01e0c",
          "transactionIndex": "0x1",
          "logIndex": "0x2",
          "removed": false
        },
        {
          "address": "0xb487f7aa4d5de24b217e73ae79d63b2066c15e6b",
          "topics": [
            "0xddf252ad1be2c89b69c2b068fc378daa952ba7f163c4a11628f55a4df523b3ef",
            "0x0000000000000000000000000000000000000000000000000000000000000000",
            "0x000000000000000000000000f51f97a20c4e00fd4d8f85462cf344bb152b10a3"
          ],
          "data": "0x0000000000000000000000000000000000000000000000000000000000022617",
          "blockHash": "0x69af84452dd6a204348fc342056447e0f7f2046cbf19193e85ea4deb06d03e9b",
          "blockNumber": "0xad83f9",
          "transactionHash": "0x7e30445bc94cc112cf5790bbdf9ba56c865e2b2a0657d09772885440c6b01e0c",
          "transactionIndex": "0x1",
          "logIndex": "0x3",
          "removed": false
        },
        {
          "address": "0x0000000000000000000000000000000000001010",
          "topics": [
            "0x4dfe1bbbcf077ddc3e01291eea2d5c70c2b422b415d95645b9adcfd678cb1d63",
            "0x0000000000000000000000000000000000000000000000000000000000001010",
            "0x000000000000000000000000f51f97a20c4e00fd4d8f85462cf344bb152b10a3",
            "0x0000000000000000000000004ad84f7014b7b44f723f284a85b1662337971439"
          ],
          "data": "0x000000000000000000000000000000000000000000000000000ddf5974afcc0000000000000000000000000000000000000000000000000574e6b9c39075e38a00000000000000000000000000000000000000000000025892a955c89194c98b00000000000000000000000000000000000000000000000574d8da6a1bc6178a00000000000000000000000000000000000000000000025892b735220644958b",
          "blockHash": "0x69af84452dd6a204348fc342056447e0f7f2046cbf19193e85ea4deb06d03e9b",
          "blockNumber": "0xad83f9",
          "transactionHash": "0x7e30445bc94cc112cf5790bbdf9ba56c865e2b2a0657d09772885440c6b01e0c",
          "transactionIndex": "0x1",
          "logIndex": "0x4",
          "removed": false
        }
      ],
      "logsBloom": "0x00000000000000000000020000000000000000000000000000000002000000000000000000000000000000100000000000008000020000000000000000400000000000000000000100000008000000800000000000000000000100001000000000000000020000000000000000000800000000000000000080000010000000000000000000000000000000000000000000000000000000000000000000000000200100000000000000008000000000000000000000000000000000000000004000000042000000000041000000000000000000000000800000108000000020000000000000000000000000020000008000000000000000000000000000100000",
      "type": "0x2",
      "transactionHash": "0x7e30445bc94cc112cf5790bbdf9ba56c865e2b2a0657d09772885440c6b01e0c",
      "transactionIndex": "0x1",
      "blockHash": "0x69af84452dd6a204348fc342056447e0f7f2046cbf19193e85ea4deb06d03e9b",
      "blockNumber": "0xad83f9",
      "gasUsed": "0x2621e",
      "effectiveGasPrice": "0x5d21dba0f",
      "from": "0xf51f97a20c4e00fd4d8f85462cf344bb152b10a3",
      "to": "0xa876ac551540d8c21f575ef2ebce582c82d0e294",
      "contractAddress": null
    }
  ],
  "libraries": [],
  "pending": [],
  "returns": {},
  "timestamp": 1725058190,
  "chain": 80002,
  "commit": "c8ebf40"
}