{
  "transactions": [
    {
      "hash": "0xbcca7e26a193fcb0241f6f2fb2d8db1efd99f6a2abfc201b938ca0d76dd153ce",
      "transactionType": "CALL",
      "contractName": null,
      "contractAddress": "0xc76ce18b4bfccec0da5f9126c0f823ef672161a6",
      "function": "buy(address,uint256)",
      "arguments": [
        "0xC02756E624412FB231082fd015a559363919cf73",
        "2000000000000000000"
      ],
      "transaction": {
        "from": "0xf51f97a20c4e00fd4d8f85462cf344bb152b10a3",
        "to": "0xc76ce18b4bfccec0da5f9126c0f823ef672161a6",
        "gas": "0x1aca7",
        "value": "0x0",
        "input": "0xcce7ec13000000000000000000000000c02756e624412fb231082fd015a559363919cf730000000000000000000000000000000000000000000000001bc16d674ec80000",
        "nonce": "0x77",
        "chainId": "0x13882"
      },
      "additionalContracts": [],
      "isFixedGasLimit": false
    }
  ],
  "receipts": [
    {
      "status": "0x1",
      "cumulativeGasUsed": "0x13657",
      "logs": [
        {
          "address": "0x6b339d10ee1dc7dd9c37a121a9b8aa57c61b5fc6",
          "topics": [
            "0xddf252ad1be2c89b69c2b068fc378daa952ba7f163c4a11628f55a4df523b3ef",
            "0x000000000000000000000000f51f97a20c4e00fd4d8f85462cf344bb152b10a3",
            "0x000000000000000000000000c76ce18b4bfccec0da5f9126c0f823ef672161a6"
          ],
          "data": "0x0000000000000000000000000000000000000000000000001bc16d674ec80000",
          "blockHash": "0x4ae7d044db04010ee1c4f52a73b66e9f6a24f9f1be909096111643136c4b82a6",
          "blockNumber": "0xadef01",
          "transactionHash": "0xbcca7e26a193fcb0241f6f2fb2d8db1efd99f6a2abfc201b938ca0d76dd153ce",
          "transactionIndex": "0x0",
          "logIndex": "0x0",
          "removed": false
        },
        {
          "address": "0xc02756e624412fb231082fd015a559363919cf73",
          "topics": [
            "0xddf252ad1be2c89b69c2b068fc378daa952ba7f163c4a11628f55a4df523b3ef",
            "0x0000000000000000000000000000000000000000000000000000000000000000",
            "0x000000000000000000000000f51f97a20c4e00fd4d8f85462cf344bb152b10a3"
          ],
          "data": "0x000000000000000000000000000000000000000000002a59b24c2421d79a8400",
          "blockHash": "0x4ae7d044db04010ee1c4f52a73b66e9f6a24f9f1be909096111643136c4b82a6",
          "blockNumber": "0xadef01",
          "transactionHash": "0xbcca7e26a193fcb0241f6f2fb2d8db1efd99f6a2abfc201b938ca0d76dd153ce",
          "transactionIndex": "0x0",
          "logIndex": "0x1",
          "removed": false
        },
        {
          "address": "0x0000000000000000000000000000000000001010",
          "topics": [
            "0x4dfe1bbbcf077ddc3e01291eea2d5c70c2b422b415d95645b9adcfd678cb1d63",
            "0x0000000000000000000000000000000000000000000000000000000000001010",
            "0x000000000000000000000000f51f97a20c4e00fd4d8f85462cf344bb152b10a3",
            "0x000000000000000000000000ac75d6efec891724b88b916b36e2ef38bcbec73f"
          ],
          "data": "0x0000000000000000000000000000000000000000000000000007e72f7dfa28000000000000000000000000000000000000000000000000056dbc0289bb455cbd0000000000000000000000000000000000000000000001d8fb75df72f6d96d150000000000000000000000000000000000000000000000056db41b5a3d4b34bd0000000000000000000000000000000000000000000001d8fb7dc6a274d39515",
          "blockHash": "0x4ae7d044db04010ee1c4f52a73b66e9f6a24f9f1be909096111643136c4b82a6",
          "blockNumber": "0xadef01",
          "transactionHash": "0xbcca7e26a193fcb0241f6f2fb2d8db1efd99f6a2abfc201b938ca0d76dd153ce",
          "transactionIndex": "0x0",
          "logIndex": "0x2",
          "removed": false
        }
      ],
      "logsBloom": "0x00000000000000000000000000000000000000000002000008000000000000000000000000000000000000000000000000008000020000010000000800000000000000000000000000000008000000800000000000000000000100000000000000000000020000000000000000000800000000000000000080000010000000000000000000000000000000000000000000000000000000000000000040000000200108000000000000000001000000000020000000002000000000000000004000000002000000000041000000200000000000000000000000100000000020000000000000000000000000000800000000000000000000000000000008100000",
      "type": "0x2",
      "transactionHash": "0xbcca7e26a193fcb0241f6f2fb2d8db1efd99f6a2abfc201b938ca0d76dd153ce",
      "transactionIndex": "0x0",
      "blockHash": "0x4ae7d044db04010ee1c4f52a73b66e9f6a24f9f1be909096111643136c4b82a6",
      "blockNumber": "0xadef01",
      "gasUsed": "0x13657",
      "effectiveGasPrice": "0x684ee180f",
      "from": "0xf51f97a20c4e00fd4d8f85462cf344bb152b10a3",
      "to": "0xc76ce18b4bfccec0da5f9126c0f823ef672161a6",
      "contractAddress": null
    }
  ],
  "libraries": [],
  "pending": [],
  "returns": {},
  "timestamp": 1725116682,
  "chain": 80002,
  "commit": "aa2930f"
}