{
  "transactions": [
    {
      "hash": "0xbe56b2ed0885c7456c5bd29c6df51a94919b42c954d39e85781f31a5041c9b7f",
      "transactionType": "CALL",
      "contractName": null,
      "contractAddress": "0x123f263a89acbb9a16a2fbbc0cc4c5ddde7d826f",
      "function": "buy(address)",
      "arguments": [
        "0x83DaCCDF45796D69DeDdD58eA1CD96395456c661"
      ],
      "transaction": {
        "from": "0xf51f97a20c4e00fd4d8f85462cf344bb152b10a3",
        "to": "0x123f263a89acbb9a16a2fbbc0cc4c5ddde7d826f",
        "gas": "0x259e1",
        "value": "0xe35fa931a0000",
        "input": "0xf088d54700000000000000000000000083daccdf45796d69deddd58ea1cd96395456c661",
        "nonce": "0x4b",
        "chainId": "0x13882"
      },
      "additionalContracts": [],
      "isFixedGasLimit": false
    }
  ],
  "receipts": [
    {
      "status": "0x1",
      "cumulativeGasUsed": "0x428e3",
      "logs": [
        {
          "address": "0x0000000000000000000000000000000000001010",
          "topics": [
            "0xe6497e3ee548a3372136af2fcb0696db31fc6cf20260707645068bd3fe97f3c4",
            "0x0000000000000000000000000000000000000000000000000000000000001010",
            "0x000000000000000000000000f51f97a20c4e00fd4d8f85462cf344bb152b10a3",
            "0x000000000000000000000000123f263a89acbb9a16a2fbbc0cc4c5ddde7d826f"
          ],
          "data": "0x000000000000000000000000000000000000000000000000000e35fa931a00000000000000000000000000000000000000000000000000000eaf2156bc8515f300000000000000000000000000000000000000000000000000000000000000000000000000000000000000000000000000000000000000000ea0eb5c296b15f3000000000000000000000000000000000000000000000000000e35fa931a0000",
          "blockHash": "0xf8794da8458ab90e7e67f5d3bc9cb4c13e4b59e284e5b66ae4e47dd13f8c661d",
          "blockNumber": "0xacb1d5",
          "transactionHash": "0xbe56b2ed0885c7456c5bd29c6df51a94919b42c954d39e85781f31a5041c9b7f",
          "transactionIndex": "0x2",
          "logIndex": "0x6",
          "removed": false
        },
        {
          "address": "0x83daccdf45796d69deddd58ea1cd96395456c661",
          "topics": [
            "0xddf252ad1be2c89b69c2b068fc378daa952ba7f163c4a11628f55a4df523b3ef",
            "0x0000000000000000000000000000000000000000000000000000000000000000",
            "0x000000000000000000000000f51f97a20c4e00fd4d8f85462cf344bb152b10a3"
          ],
          "data": "0x000000000000000000000000000000000000000000000015af1d716ee7178000",
          "blockHash": "0xf8794da8458ab90e7e67f5d3bc9cb4c13e4b59e284e5b66ae4e47dd13f8c661d",
          "blockNumber": "0xacb1d5",
          "transactionHash": "0xbe56b2ed0885c7456c5bd29c6df51a94919b42c954d39e85781f31a5041c9b7f",
          "transactionIndex": "0x2",
          "logIndex": "0x7",
          "removed": false
        },
        {
          "address": "0x0000000000000000000000000000000000001010",
          "topics": [
            "0x4dfe1bbbcf077ddc3e01291eea2d5c70c2b422b415d95645b9adcfd678cb1d63",
            "0x0000000000000000000000000000000000000000000000000000000000001010",
            "0x000000000000000000000000f51f97a20c4e00fd4d8f85462cf344bb152b10a3",
            "0x000000000000000000000000915a2284d28bd93de7d6f31173b981204bb666e6"
          ],
          "data": "0x000000000000000000000000000000000000000000000000000ae609e8af40000000000000000000000000000000000000000000000000000ebe2f1324a0ad22000000000000000000000000000000000000000000000370b0ac1adc033945160000000000000000000000000000000000000000000000000eb349093bf16d22000000000000000000000000000000000000000000000370b0b700e5ebe88516",
          "blockHash": "0xf8794da8458ab90e7e67f5d3bc9cb4c13e4b59e284e5b66ae4e47dd13f8c661d",
          "blockNumber": "0xacb1d5",
          "transactionHash": "0xbe56b2ed0885c7456c5bd29c6df51a94919b42c954d39e85781f31a5041c9b7f",
          "transactionIndex": "0x2",
          "logIndex": "0x8",
          "removed": false
        }
      ],
      "logsBloom": "0x00000000000000000010000000000000000000000000000000000000000000000000000000000000000000100000000000808000020000000000000000000000000000000000000000000008000000800000000000000000000100000000000000000000020000000000000000000800000020000000000080000010000000000000000000000000000000000000000400000000000000000000000400000000200100000000000000000000000000000400000000000000000000000000004000000002000000000041000000000000000002000000800000108000000020000000000000000000000800000000000000000000400000000000000000100000",
      "type": "0x2",
      "transactionHash": "0xbe56b2ed0885c7456c5bd29c6df51a94919b42c954d39e85781f31a5041c9b7f",
      "transactionIndex": "0x2",
      "blockHash": "0xf8794da8458ab90e7e67f5d3bc9cb4c13e4b59e284e5b66ae4e47dd13f8c661d",
      "blockNumber": "0xacb1d5",
      "gasUsed": "0x1b3c0",
      "effectiveGasPrice": "0x66720b30f",
      "from": "0xf51f97a20c4e00fd4d8f85462cf344bb152b10a3",
      "to": "0x123f263a89acbb9a16a2fbbc0cc4c5ddde7d826f",
      "contractAddress": null
    }
  ],
  "libraries": [],
  "pending": [],
  "returns": {},
  "timestamp": 1724943547,
  "chain": 80002,
  "commit": "c1ea02c"
}