{
  "transactions": [
    {
      "hash": "0xb4a5d1af1a35834150357367eb7b149f521470645fe7875157a22d6a12370c6a",
      "transactionType": "CALL",
      "contractName": null,
      "contractAddress": "0xc76ce18b4bfccec0da5f9126c0f823ef672161a6",
      "function": "buy(address,uint256)",
      "arguments": [
        "0xC02756E624412FB231082fd015a559363919cf73",
        "2000000000000000000"
      ],
      "transaction": {
        "from": "0xf51f97a20c4e00fd4d8f85462cf344bb152b10a3",
        "to": "0xc76ce18b4bfccec0da5f9126c0f823ef672161a6",
        "gas": "0x31db5",
        "value": "0x0",
        "input": "0xcce7ec13000000000000000000000000c02756e624412fb231082fd015a559363919cf730000000000000000000000000000000000000000000000001bc16d674ec80000",
        "nonce": "0x75",
        "chainId": "0x13882"
      },
      "additionalContracts": [],
      "isFixedGasLimit": false
    }
  ],
  "receipts": [
    {
      "status": "0x1",
      "cumulativeGasUsed": "0x94edd",
      "logs": [
        {
          "address": "0x6b339d10ee1dc7dd9c37a121a9b8aa57c61b5fc6",
          "topics": [
            "0xddf252ad1be2c89b69c2b068fc378daa952ba7f163c4a11628f55a4df523b3ef",
            "0x000000000000000000000000f51f97a20c4e00fd4d8f85462cf344bb152b10a3",
            "0x000000000000000000000000c76ce18b4bfccec0da5f9126c0f823ef672161a6"
          ],
          "data": "0x0000000000000000000000000000000000000000000000001bc16d674ec80000",
          "blockHash": "0x41627678e57880a41920b6426ffb5ef4f0bd6077db7efd7b20b0b3971a9b20c2",
          "blockNumber": "0xadeda0",
          "transactionHash": "0xb4a5d1af1a35834150357367eb7b149f521470645fe7875157a22d6a12370c6a",
          "transactionIndex": "0x1",
          "logIndex": "0x1",
          "removed": false
        },
        {
          "address": "0xc02756e624412fb231082fd015a559363919cf73",
          "topics": [
            "0xddf252ad1be2c89b69c2b068fc378daa952ba7f163c4a11628f55a4df523b3ef",
            "0x0000000000000000000000000000000000000000000000000000000000000000",
            "0x000000000000000000000000f51f97a20c4e00fd4d8f85462cf344bb152b10a3"
          ],
          "data": "0x000000000000000000000000000000000000000000002a59e9ce6d6de20c6800",
          "blockHash": "0x41627678e57880a41920b6426ffb5ef4f0bd6077db7efd7b20b0b3971a9b20c2",
          "blockNumber": "0xadeda0",
          "transactionHash": "0xb4a5d1af1a35834150357367eb7b149f521470645fe7875157a22d6a12370c6a",
          "transactionIndex": "0x1",
          "logIndex": "0x2",
          "removed": false
        },
        {
          "address": "0x0000000000000000000000000000000000001010",
          "topics": [
            "0x4dfe1bbbcf077ddc3e01291eea2d5c70c2b422b415d95645b9adcfd678cb1d63",
            "0x0000000000000000000000000000000000000000000000000000000000001010",
            "0x000000000000000000000000f51f97a20c4e00fd4d8f85462cf344bb152b10a3",
            "0x0000000000000000000000006dc2dd54f24979ec26212794c71afefed722280c"
          ],
          "data": "0x000000000000000000000000000000000000000000000000000d21a6cde716000000000000000000000000000000000000000000000000056dcdc2366ab869560000000000000000000000000000000000000000000002bc8114ae9bb780412c0000000000000000000000000000000000000000000000056dc0a08f9cd153560000000000000000000000000000000000000000000002bc8121d0428567572c",
          "blockHash": "0x41627678e57880a41920b6426ffb5ef4f0bd6077db7efd7b20b0b3971a9b20c2",
          "blockNumber": "0xadeda0",
          "transactionHash": "0xb4a5d1af1a35834150357367eb7b149f521470645fe7875157a22d6a12370c6a",
          "transactionIndex": "0x1",
          "logIndex": "0x3",
          "removed": false
        }
      ],
      "logsBloom": "0x00000000000000000000000000000000000000000002000008000000000000000000000000000000000000000000000000008000020000010000000800000000000000000000000000000008000000800000000000000000000100080000000000000000020000000000000000000800000000000000000080000010000000020000000000000000000000000040000000000000000000000000000040000000200100000000000000000001000000000000000000002000000000000000004000000002000000000041000000200000000000000000000000100000000020000000000000000000000000000000000000000000000000000000000008100000",
      "type": "0x2",
      "transactionHash": "0xb4a5d1af1a35834150357367eb7b149f521470645fe7875157a22d6a12370c6a",
      "transactionIndex": "0x1",
      "blockHash": "0x41627678e57880a41920b6426ffb5ef4f0bd6077db7efd7b20b0b3971a9b20c2",
      "blockNumber": "0xadeda0",
      "gasUsed": "0x24187",
      "effectiveGasPrice": "0x5d21dba0f",
      "from": "0xf51f97a20c4e00fd4d8f85462cf344bb152b10a3",
      "to": "0xc76ce18b4bfccec0da5f9126c0f823ef672161a6",
      "contractAddress": null
    }
  ],
  "libraries": [],
  "pending": [],
  "returns": {},
  "timestamp": 1725115925,
  "chain": 80002,
  "commit": "aa2930f"
}