{
  "transactions": [
    {
      "hash": "0xdde599b96a6555981c51fe94219bf6df0afd9741816740b29faec61d400d79d6",
      "transactionType": "CALL",
      "contractName": null,
      "contractAddress": "0xa876ac551540d8c21f575ef2ebce582c82d0e294",
      "function": "buy(address)",
      "arguments": [
        "0xb487f7aA4d5DE24b217e73AE79d63B2066c15E6b"
      ],
      "transaction": {
        "from": "0xf51f97a20c4e00fd4d8f85462cf344bb152b10a3",
        "to": "0xa876ac551540d8c21f575ef2ebce582c82d0e294",
        "gas": "0x33d06",
        "value": "0xe35fa931a0000",
        "input": "0xf088d547000000000000000000000000b487f7aa4d5de24b217e73ae79d63b2066c15e6b",
        "nonce": "0x56",
        "chainId": "0x13882"
      },
      "additionalContracts": [],
      "isFixedGasLimit": false
    }
  ],
  "receipts": [
    {
      "status": "0x1",
      "cumulativeGasUsed": "0x236db",
      "logs": [
        {
          "address": "0x0000000000000000000000000000000000001010",
          "topics": [
            "0xe6497e3ee548a3372136af2fcb0696db31fc6cf20260707645068bd3fe97f3c4",
            "0x0000000000000000000000000000000000000000000000000000000000001010",
            "0x000000000000000000000000f51f97a20c4e00fd4d8f85462cf344bb152b10a3",
            "0x000000000000000000000000a876ac551540d8c21f575ef2ebce582c82d0e294"
          ],
          "data": "0x000000000000000000000000000000000000000000000000000e35fa931a000000000000000000000000000000000000000000000000000574b2cc1cee59de48000000000000000000000000000000000000000000000000000e35fa931a000000000000000000000000000000000000000000000000000574a496225b3fde48000000000000000000000000000000000000000000000000001c6bf526340000",
          "blockHash": "0x0d7705d144b0616c62f569a9356e53af236dbd019923521c5c855e29d49940e0",
          "blockNumber": "0xad8413",
          "transactionHash": "0xdde599b96a6555981c51fe94219bf6df0afd9741816740b29faec61d400d79d6",
          "transactionIndex": "0x0",
          "logIndex": "0x0",
          "removed": false
        },
        {
          "address": "0xb487f7aa4d5de24b217e73ae79d63b2066c15e6b",
          "topics": [
            "0xddf252ad1be2c89b69c2b068fc378daa952ba7f163c4a11628f55a4df523b3ef",
            "0x0000000000000000000000000000000000000000000000000000000000000000",
            "0x000000000000000000000000f51f97a20c4e00fd4d8f85462cf344bb152b10a3"
          ],
          "data": "0x0000000000000000000000000000000000000000000000000000000000008d61",
          "blockHash": "0x0d7705d144b0616c62f569a9356e53af236dbd019923521c5c855e29d49940e0",
          "blockNumber": "0xad8413",
          "transactionHash": "0xdde599b96a6555981c51fe94219bf6df0afd9741816740b29faec61d400d79d6",
          "transactionIndex": "0x0",
          "logIndex": "0x1",
          "removed": false
        },
        {
          "address": "0x0000000000000000000000000000000000001010",
          "topics": [
            "0x4dfe1bbbcf077ddc3e01291eea2d5c70c2b422b415d95645b9adcfd678cb1d63",
            "0x0000000000000000000000000000000000000000000000000000000000001010",
            "0x000000000000000000000000f51f97a20c4e00fd4d8f85462cf344bb152b10a3",
            "0x0000000000000000000000004631753190f2f5a15a7ba172bbac102b7d95fa22"
          ],
          "data": "0x00000000000000000000000000000000000000000000000000104de8cbb5fbeb00000000000000000000000000000000000000000000000574caa46f888857c800000000000000000000000000000000000000000000019ba601ec80db03123700000000000000000000000000000000000000000000000574ba5686bcd25bdd00000000000000000000000000000000000000000000019ba6123a69a6b90e22",
          "blockHash": "0x0d7705d144b0616c62f569a9356e53af236dbd019923521c5c855e29d49940e0",
          "blockNumber": "0xad8413",
          "transactionHash": "0xdde599b96a6555981c51fe94219bf6df0afd9741816740b29faec61d400d79d6",
          "transactionIndex": "0x0",
          "logIndex": "0x2",
          "removed": false
        }
      ],
      "logsBloom": "0x00000000000000000000020000000000000000002000000000000002000000000000000000000000000000100000000000008000020000000000000040000000000000000000000100000008000000800000000000000000000100000000000000000000020000100000000000000800000000000000000080000010000000000000000000000000000000000000000000000000000000000000000000000000200100000000000000008000000000000000000000000000000000000000004000000042000000000041000000000000000000000000800000108000000020000000000000000000000000020000000000000000000000000000000000100000",
      "type": "0x2",
      "transactionHash": "0xdde599b96a6555981c51fe94219bf6df0afd9741816740b29faec61d400d79d6",
      "transactionIndex": "0x0",
      "blockHash": "0x0d7705d144b0616c62f569a9356e53af236dbd019923521c5c855e29d49940e0",
      "blockNumber": "0xad8413",
      "gasUsed": "0x236db",
      "effectiveGasPrice": "0x75cff3440",
      "from": "0xf51f97a20c4e00fd4d8f85462cf344bb152b10a3",
      "to": "0xa876ac551540d8c21f575ef2ebce582c82d0e294",
      "contractAddress": null
    }
  ],
  "libraries": [],
  "pending": [],
  "returns": {},
  "timestamp": 1725058246,
  "chain": 80002,
  "commit": "c8ebf40"
}