{
  "transactions": [
    {
      "hash": "0x2e2fc3d8622d5b6c562c3af2399b4a26530fb921b4376dd5804ca848b448c77f",
      "transactionType": "CALL",
      "contractName": null,
      "contractAddress": "0x123f263a89acbb9a16a2fbbc0cc4c5ddde7d826f",
      "function": "createToken(string,string)",
      "arguments": [
        "Trade1",
        "TRADE1"
      ],
      "transaction": {
        "from": "0xf51f97a20c4e00fd4d8f85462cf344bb152b10a3",
        "to": "0x123f263a89acbb9a16a2fbbc0cc4c5ddde7d826f",
        "gas": "0x41322",
        "value": "0x0",
        "input": "0x2f2f2d56000000000000000000000000000000000000000000000000000000000000004000000000000000000000000000000000000000000000000000000000000000800000000000000000000000000000000000000000000000000000000000000006547261646531000000000000000000000000000000000000000000000000000000000000000000000000000000000000000000000000000000000000000000065452414445310000000000000000000000000000000000000000000000000000",
        "nonce": "0x4a",
        "chainId": "0x13882"
      },
      "additionalContracts": [
        {
          "transactionType": "CREATE",
          "address": "0x83daccdf45796d69deddd58ea1cd96395456c661",
          "initCode": "0x3d602d80600a3d3981f3363d3d373d3d3d363d73b638314b89538e85a2ec01a02921f0598b22c7a35af43d82803e903d91602b57fd5bf3"
        }
      ],
      "isFixedGasLimit": false
    }
  ],
  "receipts": [
    {
      "status": "0x1",
      "cumulativeGasUsed": "0x2c945",
      "logs": [
        {
          "address": "0x83daccdf45796d69deddd58ea1cd96395456c661",
          "topics": [
            "0xc7f505b2f371ae2175ee4913f4499e1f2633a7b5936321eed1cdaeb6115181d2"
          ],
          "data": "0x0000000000000000000000000000000000000000000000000000000000000001",
          "blockHash": "0xbae2f3025442e88bc83af4529abd7a5509a0af9e3f254293916f3767293ab5f0",
          "blockNumber": "0xacb171",
          "transactionHash": "0x2e2fc3d8622d5b6c562c3af2399b4a26530fb921b4376dd5804ca848b448c77f",
          "transactionIndex": "0x0",
          "logIndex": "0x0",
          "removed": false
        },
        {
          "address": "0x0000000000000000000000000000000000001010",
          "topics": [
            "0x4dfe1bbbcf077ddc3e01291eea2d5c70c2b422b415d95645b9adcfd678cb1d63",
            "0x0000000000000000000000000000000000000000000000000000000000001010",
            "0x000000000000000000000000f51f97a20c4e00fd4d8f85462cf344bb152b10a3",
            "0x000000000000000000000000bb583a9dde59ca64aaa14807f37a4c665c0d72c7"
          ],
          "data": "0x000000000000000000000000000000000000000000000000001376214fa95c000000000000000000000000000000000000000000000000000ed1a5347473d42d0000000000000000000000000000000000000000000000d13a02486e312f57fa0000000000000000000000000000000000000000000000000ebe2f1324ca782d0000000000000000000000000000000000000000000000d13a15be8f80d8b3fa",
          "blockHash": "0xbae2f3025442e88bc83af4529abd7a5509a0af9e3f254293916f3767293ab5f0",
          "blockNumber": "0xacb171",
          "transactionHash": "0x2e2fc3d8622d5b6c562c3af2399b4a26530fb921b4376dd5804ca848b448c77f",
          "transactionIndex": "0x0",
          "logIndex": "0x1",
          "removed": false
        }
      ],
      "logsBloom": "0x00000000000000000000000000000000000000000000000000000000000000000000000000000000002000000000000000008000020000000000000000000000000000000000000000000000000000800000000000000000000100000000000000000000000000000000000000000000000020000000000080000000000000000000000000000000000800000000000000000000000080000008000000000000208100000000000000000000000000000400000000000000000000000000004000000000000000000041000000000000000000000004000000100000000000000000000000000000000800000000000000000000000000000000000000100000",
      "type": "0x2",
      "transactionHash": "0x2e2fc3d8622d5b6c562c3af2399b4a26530fb921b4376dd5804ca848b448c77f",
      "transactionIndex": "0x0",
      "blockHash": "0xbae2f3025442e88bc83af4529abd7a5509a0af9e3f254293916f3767293ab5f0",
      "blockNumber": "0xacb171",
      "gasUsed": "0x2c945",
      "effectiveGasPrice": "0x6fc23ac0f",
      "from": "0xf51f97a20c4e00fd4d8f85462cf344bb152b10a3",
      "to": "0x123f263a89acbb9a16a2fbbc0cc4c5ddde7d826f",
      "contractAddress": null
    }
  ],
  "libraries": [],
  "pending": [],
  "returns": {},
  "timestamp": 1724943331,
  "chain": 80002,
  "commit": "c1ea02c"
}