{
  "transactions": [
    {
      "hash": "0xfd906ade4ce5f6407be8be4edb911d54cc60c0c94a2eb28fa3b5a21a788fe666",
      "transactionType": "CALL",
      "contractName": null,
      "contractAddress": "0xa876ac551540d8c21f575ef2ebce582c82d0e294",
      "function": "createToken(string,string)",
      "arguments": [
        "Trade5",
        "TRADE5"
      ],
      "transaction": {
        "from": "0xf51f97a20c4e00fd4d8f85462cf344bb152b10a3",
        "to": "0xa876ac551540d8c21f575ef2ebce582c82d0e294",
        "gas": "0x54c75",
        "value": "0x0",
        "input": "0x2f2f2d56000000000000000000000000000000000000000000000000000000000000004000000000000000000000000000000000000000000000000000000000000000800000000000000000000000000000000000000000000000000000000000000006547261646535000000000000000000000000000000000000000000000000000000000000000000000000000000000000000000000000000000000000000000065452414445350000000000000000000000000000000000000000000000000000",
        "nonce": "0x54",
        "chainId": "0x13882"
      },
      "additionalContracts": [
        {
          "transactionType": "CREATE",
          "address": "0xb487f7aa4d5de24b217e73ae79d63b2066c15e6b",
          "initCode": "0x3d602d80600a3d3981f3363d3d373d3d3d363d73b157fe42959949d9b58b880dfa4ec3e399f396a25af43d82803e903d91602b57fd5bf3"
        }
      ],
      "isFixedGasLimit": false
    }
  ],
  "receipts": [
    {
      "status": "0x1",
      "cumulativeGasUsed": "0x3d612",
      "logs": [
        {
          "address": "0xb487f7aa4d5de24b217e73ae79d63b2066c15e6b",
          "topics": [
            "0xddf252ad1be2c89b69c2b068fc378daa952ba7f163c4a11628f55a4df523b3ef",
            "0x0000000000000000000000000000000000000000000000000000000000000000",
            "0x000000000000000000000000a876ac551540d8c21f575ef2ebce582c82d0e294"
          ],
          "data": "0x0000000000000000000000000000000000000000000000000000000000000001",
          "blockHash": "0xb3e0842fc1a873efbc68b673006c96e029bd89f93f1c4a98f1313b68cd3d7d38",
          "blockNumber": "0xad83c6",
          "transactionHash": "0xfd906ade4ce5f6407be8be4edb911d54cc60c0c94a2eb28fa3b5a21a788fe666",
          "transactionIndex": "0x0",
          "logIndex": "0x0",
          "removed": false
        },
        {
          "address": "0xb487f7aa4d5de24b217e73ae79d63b2066c15e6b",
          "topics": [
            "0xc7f505b2f371ae2175ee4913f4499e1f2633a7b5936321eed1cdaeb6115181d2"
          ],
          "data": "0x0000000000000000000000000000000000000000000000000000000000000001",
          "blockHash": "0xb3e0842fc1a873efbc68b673006c96e029bd89f93f1c4a98f1313b68cd3d7d38",
          "blockNumber": "0xad83c6",
          "transactionHash": "0xfd906ade4ce5f6407be8be4edb911d54cc60c0c94a2eb28fa3b5a21a788fe666",
          "transactionIndex": "0x0",
          "logIndex": "0x1",
          "removed": false
        },
        {
          "address": "0x0000000000000000000000000000000000001010",
          "topics": [
            "0x4dfe1bbbcf077ddc3e01291eea2d5c70c2b422b415d95645b9adcfd678cb1d63",
            "0x0000000000000000000000000000000000000000000000000000000000001010",
            "0x000000000000000000000000f51f97a20c4e00fd4d8f85462cf344bb152b10a3",
            "0x000000000000000000000000bb583a9dde59ca64aaa14807f37a4c665c0d72c7"
          ],
          "data": "0x00000000000000000000000000000000000000000000000000165466cd93140000000000000000000000000000000000000000000000000574fd0e2a5e4282980000000000000000000000000000000000000000000000d1dbe9ae16187594c100000000000000000000000000000000000000000000000574e6b9c390af6e980000000000000000000000000000000000000000000000d1dc00027ce608a8c1",
          "blockHash": "0xb3e0842fc1a873efbc68b673006c96e029bd89f93f1c4a98f1313b68cd3d7d38",
          "blockNumber": "0xad83c6",
          "transactionHash": "0xfd906ade4ce5f6407be8be4edb911d54cc60c0c94a2eb28fa3b5a21a788fe666",
          "transactionIndex": "0x0",
          "logIndex": "0x2",
          "removed": false
        }
      ],
      "logsBloom": "0x00000000000000000000020000000000000000000000000000000002000000000000000000000000002000000000000000008000020000000000000000000000000000000000000100000008000000800000000000000000000100000000000000000000020000000000000000000800000000000000000080000010000000000000000000000000000800000000000000000000000080000008000000000000208100000000000000008000000000000000000000000000000000000000004000000042000000000041000000000000000000000004000000100000000020000000000000000000000000020000000000000000000000000000000000100000",
      "type": "0x2",
      "transactionHash": "0xfd906ade4ce5f6407be8be4edb911d54cc60c0c94a2eb28fa3b5a21a788fe666",
      "transactionIndex": "0x0",
      "blockHash": "0xb3e0842fc1a873efbc68b673006c96e029bd89f93f1c4a98f1313b68cd3d7d38",
      "blockNumber": "0xad83c6",
      "gasUsed": "0x3d612",
      "effectiveGasPrice": "0x5d21dba0f",
      "from": "0xf51f97a20c4e00fd4d8f85462cf344bb152b10a3",
      "to": "0xa876ac551540d8c21f575ef2ebce582c82d0e294",
      "contractAddress": null
    }
  ],
  "libraries": [],
  "pending": [],
  "returns": {},
  "timestamp": 1725058082,
  "chain": 80002,
  "commit": "c8ebf40"
}