{
  "transactions": [
    {
      "hash": "0xfa9005c901d09b905fb169186ffa6bed757d18763843fec29b349c35ee141855",
      "transactionType": "CALL",
      "contractName": null,
      "contractAddress": "0xc76ce18b4bfccec0da5f9126c0f823ef672161a6",
      "function": "createToken(string,string)",
      "arguments": [
        "BaseIT",
        "BASEIT"
      ],
      "transaction": {
        "from": "0xf51f97a20c4e00fd4d8f85462cf344bb152b10a3",
        "to": "0xc76ce18b4bfccec0da5f9126c0f823ef672161a6",
        "gas": "0x41301",
        "value": "0x0",
        "input": "0x2f2f2d56000000000000000000000000000000000000000000000000000000000000004000000000000000000000000000000000000000000000000000000000000000800000000000000000000000000000000000000000000000000000000000000006426173654954000000000000000000000000000000000000000000000000000000000000000000000000000000000000000000000000000000000000000000064241534549540000000000000000000000000000000000000000000000000000",
        "nonce": "0x70",
        "chainId": "0x13882"
      },
      "additionalContracts": [
        {
          "transactionType": "CREATE",
          "address": "0x64cd98e11a695946448330d35b49dbe916f5ed51",
          "initCode": "0x3d602d80600a3d3981f3363d3d373d3d3d363d737ebcfd243999b4ffe76064e3ff052b49a784f3bb5af43d82803e903d91602b57fd5bf3"
        }
      ],
      "isFixedGasLimit": false
    }
  ],
  "receipts": [
    {
      "status": "0x1",
      "cumulativeGasUsed": "0x2c92f",
      "logs": [
        {
          "address": "0x64cd98e11a695946448330d35b49dbe916f5ed51",
          "topics": [
            "0xc7f505b2f371ae2175ee4913f4499e1f2633a7b5936321eed1cdaeb6115181d2"
          ],
          "data": "0x0000000000000000000000000000000000000000000000000000000000000001",
          "blockHash": "0x20ffb7abc4c5a16583c7ca87144f474c925425a052ecfa047d3d89d18ce92faf",
          "blockNumber": "0xadbf07",
          "transactionHash": "0xfa9005c901d09b905fb169186ffa6bed757d18763843fec29b349c35ee141855",
          "transactionIndex": "0x0",
          "logIndex": "0x0",
          "removed": false
        },
        {
          "address": "0x0000000000000000000000000000000000001010",
          "topics": [
            "0x4dfe1bbbcf077ddc3e01291eea2d5c70c2b422b415d95645b9adcfd678cb1d63",
            "0x0000000000000000000000000000000000000000000000000000000000001010",
            "0x000000000000000000000000f51f97a20c4e00fd4d8f85462cf344bb152b10a3",
            "0x0000000000000000000000006dc2dd54f24979ec26212794c71afefed722280c"
          ],
          "data": "0x000000000000000000000000000000000000000000000000001791673cb709fc0000000000000000000000000000000000000000000000056e09547a1bd87b230000000000000000000000000000000000000000000002bc1c426ec16f7565d80000000000000000000000000000000000000000000000056df1c312df2171270000000000000000000000000000000000000000000002bc1c5a0028ac2c6fd4",
          "blockHash": "0x20ffb7abc4c5a16583c7ca87144f474c925425a052ecfa047d3d89d18ce92faf",
          "blockNumber": "0xadbf07",
          "transactionHash": "0xfa9005c901d09b905fb169186ffa6bed757d18763843fec29b349c35ee141855",
          "transactionIndex": "0x0",
          "logIndex": "0x1",
          "removed": false
        }
      ],
      "logsBloom": "0x00000000000000000100000000000000000000000000000000000000000000000000000000000000000000000000000000008000020000000000000000000000000000000000000000000000000000800000000000000000000100080000000000000000000000000000000000000000000000000000000080000000000000020000000000000000000c00000040000000000000000080000000000000000000200100000000000000000000000000000000000000000000000200000000004000000000000000000041000000000000000000000004000000100000000000000000000000000000000000000000000000000000000000000000000000100000",
      "type": "0x2",
      "transactionHash": "0xfa9005c901d09b905fb169186ffa6bed757d18763843fec29b349c35ee141855",
      "transactionIndex": "0x0",
      "blockHash": "0x20ffb7abc4c5a16583c7ca87144f474c925425a052ecfa047d3d89d18ce92faf",
      "blockNumber": "0xadbf07",
      "gasUsed": "0x2c92f",
      "effectiveGasPrice": "0x875b69ed3",
      "from": "0xf51f97a20c4e00fd4d8f85462cf344bb152b10a3",
      "to": "0xc76ce18b4bfccec0da5f9126c0f823ef672161a6",
      "contractAddress": null
    }
  ],
  "libraries": [],
  "pending": [],
  "returns": {},
  "timestamp": 1725090575,
  "chain": 80002,
  "commit": "aa2930f"
}