{
  "transactions": [
    {
      "hash": "0x04d71e35b7c8fec7e15f6d055b8efd4987601b4ab0f772ac41e12168ed9bf9d2",
      "transactionType": "CALL",
      "contractName": null,
      "contractAddress": "0x183dfbd4e3880457bed73d143fbeafa24d234531",
      "function": "createToken(string,string)",
      "arguments": [
        "GFirst",
        "GFRST"
      ],
      "transaction": {
        "from": "0xf51f97a20c4e00fd4d8f85462cf344bb152b10a3",
        "to": "0x183dfbd4e3880457bed73d143fbeafa24d234531",
        "gas": "0x3d926",
        "value": "0x0",
        "input": "0x2f2f2d56000000000000000000000000000000000000000000000000000000000000004000000000000000000000000000000000000000000000000000000000000000800000000000000000000000000000000000000000000000000000000000000006474669727374000000000000000000000000000000000000000000000000000000000000000000000000000000000000000000000000000000000000000000054746525354000000000000000000000000000000000000000000000000000000",
        "nonce": "0x41",
        "chainId": "0x13882"
      },
      "additionalContracts": [
        {
          "transactionType": "CREATE",
          "address": "0x714df05138bf7189865601ffdbfaabd7eb24ed1d",
          "initCode": "0x3d602d80600a3d3981f3363d3d373d3d3d363d730d3eefa63e79b58999c6e7f0af8dfeac46515e3b5af43d82803e903d91602b57fd5bf3"
        }
      ],
      "isFixedGasLimit": false
    }
  ],
  "receipts": [
    {
      "status": "0x1",
      "cumulativeGasUsed": "0x2c940",
      "logs": [
        {
          "address": "0x714df05138bf7189865601ffdbfaabd7eb24ed1d",
          "topics": [
            "0xc7f505b2f371ae2175ee4913f4499e1f2633a7b5936321eed1cdaeb6115181d2"
          ],
          "data": "0x0000000000000000000000000000000000000000000000000000000000000001",
          "blockHash": "0x4df338ef0d0863e3a791826d916979a7b8afb0acecccb482c6a244121ab08f1c",
          "blockNumber": "0xab1d33",
          "transactionHash": "0x04d71e35b7c8fec7e15f6d055b8efd4987601b4ab0f772ac41e12168ed9bf9d2",
          "transactionIndex": "0x0",
          "logIndex": "0x0",
          "removed": false
        },
        {
          "address": "0x0000000000000000000000000000000000001010",
          "topics": [
            "0x4dfe1bbbcf077ddc3e01291eea2d5c70c2b422b415d95645b9adcfd678cb1d63",
            "0x0000000000000000000000000000000000000000000000000000000000001010",
            "0x000000000000000000000000f51f97a20c4e00fd4d8f85462cf344bb152b10a3",
            "0x000000000000000000000000d07dd60077d3a5628837ada6002ea8ac5e689795"
          ],
          "data": "0x000000000000000000000000000000000000000000000000001375fe62cd354000000000000000000000000000000000000000000000000006f3f54a8f96cf92000000000000000000000000000000000000000000000016c5367bd9ea8dd58900000000000000000000000000000000000000000000000006e07f4c2cc99a52000000000000000000000000000000000000000000000016c549f1d84d5b0ac9",
          "blockHash": "0x4df338ef0d0863e3a791826d916979a7b8afb0acecccb482c6a244121ab08f1c",
          "blockNumber": "0xab1d33",
          "transactionHash": "0x04d71e35b7c8fec7e15f6d055b8efd4987601b4ab0f772ac41e12168ed9bf9d2",
          "transactionIndex": "0x0",
          "logIndex": "0x1",
          "removed": false
        }
      ],
      "logsBloom": "0x00000000000000000200000000000000000000000000000000000010000000000000000000000000000000000000000000008000020000000000000000000000000000000000000000000000000000800000000000000000000100000000000000000000000000000000000000000000000000000000000080000000000000000000000000000000000800000000000000800000000080000000000000000001200100000000000000000000000000000000000000000000000000000000004000000000000000000041000000000000000000000004000000100000000000000000040000000000000000000000000000000000000000000020000000100000",
      "type": "0x2",
      "transactionHash": "0x04d71e35b7c8fec7e15f6d055b8efd4987601b4ab0f772ac41e12168ed9bf9d2",
      "transactionIndex": "0x0",
      "blockHash": "0x4df338ef0d0863e3a791826d916979a7b8afb0acecccb482c6a244121ab08f1c",
      "blockNumber": "0xab1d33",
      "gasUsed": "0x2c940",
      "effectiveGasPrice": "0x6fc23ac00",
      "from": "0xf51f97a20c4e00fd4d8f85462cf344bb152b10a3",
      "to": "0x183dfbd4e3880457bed73d143fbeafa24d234531",
      "contractAddress": null
    }
  ],
  "libraries": [],
  "pending": [],
  "returns": {},
  "timestamp": 1724722499,
  "chain": 80002,
  "commit": "ec07c6b"
}