{
  "transactions": [
    {
      "hash": "0x49af6d01ad5e5fe191fb01a2574e6d4834d46a9c14b5b15b1a6fc6fbb6f26c2e",
      "transactionType": "CALL",
      "contractName": null,
      "contractAddress": "0xe885723dc412704f69bc4014f893046e5ff1481f",
      "function": "createToken(string,string)",
      "arguments": [
        "Trade4",
        "TRADE4"
      ],
      "transaction": {
        "from": "0xf51f97a20c4e00fd4d8f85462cf344bb152b10a3",
        "to": "0xe885723dc412704f69bc4014f893046e5ff1481f",
        "gas": "0x3d94c",
        "value": "0x0",
        "input": "0x2f2f2d56000000000000000000000000000000000000000000000000000000000000004000000000000000000000000000000000000000000000000000000000000000800000000000000000000000000000000000000000000000000000000000000006547261646534000000000000000000000000000000000000000000000000000000000000000000000000000000000000000000000000000000000000000000065452414445340000000000000000000000000000000000000000000000000000",
        "nonce": "0x51",
        "chainId": "0x13882"
      },
      "additionalContracts": [
        {
          "transactionType": "CREATE",
          "address": "0xb5bcc87ead5c6f7c1c1e323b6120aec3c7d65f7c",
          "initCode": "0x3d602d80600a3d3981f3363d3d373d3d3d363d7387db037e713e9616c923282a1e612df8ed2e789e5af43d82803e903d91602b57fd5bf3"
        }
      ],
      "isFixedGasLimit": false
    }
  ],
  "receipts": [
    {
      "status": "0x1",
      "cumulativeGasUsed": "0x33f80",
      "logs": [
        {
          "address": "0xb5bcc87ead5c6f7c1c1e323b6120aec3c7d65f7c",
          "topics": [
            "0xc7f505b2f371ae2175ee4913f4499e1f2633a7b5936321eed1cdaeb6115181d2"
          ],
          "data": "0x0000000000000000000000000000000000000000000000000000000000000001",
          "blockHash": "0xb23462e86de7c530a2912d78a0fa57073c0113b788bd250c98a5299ed55ee341",
          "blockNumber": "0xad8277",
          "transactionHash": "0x49af6d01ad5e5fe191fb01a2574e6d4834d46a9c14b5b15b1a6fc6fbb6f26c2e",
          "transactionIndex": "0x1",
          "logIndex": "0x1",
          "removed": false
        },
        {
          "address": "0x0000000000000000000000000000000000001010",
          "topics": [
            "0x4dfe1bbbcf077ddc3e01291eea2d5c70c2b422b415d95645b9adcfd678cb1d63",
            "0x0000000000000000000000000000000000000000000000000000000000001010",
            "0x000000000000000000000000f51f97a20c4e00fd4d8f85462cf344bb152b10a3",
            "0x0000000000000000000000006dc2dd54f24979ec26212794c71afefed722280c"
          ],
          "data": "0x00000000000000000000000000000000000000000000000000141cd2473025ab00000000000000000000000000000000000000000000000576bf3fafe483d3f00000000000000000000000000000000000000000000002bbf0d560ea950104e700000000000000000000000000000000000000000000000576ab22dd9d53ae450000000000000000000000000000000000000000000002bbf0e97dbcdc312a92",
          "blockHash": "0xb23462e86de7c530a2912d78a0fa57073c0113b788bd250c98a5299ed55ee341",
          "blockNumber": "0xad8277",
          "transactionHash": "0x49af6d01ad5e5fe191fb01a2574e6d4834d46a9c14b5b15b1a6fc6fbb6f26c2e",
          "transactionIndex": "0x1",
          "logIndex": "0x2",
          "removed": false
        }
      ],
      "logsBloom": "0x00000000000000000000000000000000000000000000000000000000000000000000000000000000000000000000000000008000020000000000000000000000000000000000000000000002000000800000000000000000000100080000000000000000000000000000000000000000000000000000000080000000000000020000000000000000000800000040000000000000000090000000000000000000200100000000000000000000000000000000000000000000000000000000004000000000000000000041000000000000000000000004000000100000000000000000000000000000000000000008000000000000000000000000000000100000",
      "type": "0x2",
      "transactionHash": "0x49af6d01ad5e5fe191fb01a2574e6d4834d46a9c14b5b15b1a6fc6fbb6f26c2e",
      "transactionIndex": "0x1",
      "blockHash": "0xb23462e86de7c530a2912d78a0fa57073c0113b788bd250c98a5299ed55ee341",
      "blockNumber": "0xad8277",
      "gasUsed": "0x2c95b",
      "effectiveGasPrice": "0x737be7600",
      "from": "0xf51f97a20c4e00fd4d8f85462cf344bb152b10a3",
      "to": "0xe885723dc412704f69bc4014f893046e5ff1481f",
      "contractAddress": null
    }
  ],
  "libraries": [],
  "pending": [],
  "returns": {},
  "timestamp": 1725057368,
  "chain": 80002,
  "commit": "c8ebf40"
}