{
  "transactions": [
    {
      "hash": "0xffb23d84bc8b39dc8d5c335076f94d01c10a6baeae703dd2a1a429872540378e",
      "transactionType": "CALL",
      "contractName": null,
      "contractAddress": "0x123f263a89acbb9a16a2fbbc0cc4c5ddde7d826f",
      "function": "createToken(string,string)",
      "arguments": [
        "Trade1",
        "TRADE1"
      ],
      "transaction": {
        "from": "0xf51f97a20c4e00fd4d8f85462cf344bb152b10a3",
        "to": "0x123f263a89acbb9a16a2fbbc0cc4c5ddde7d826f",
        "gas": "0x41322",
        "value": "0x0",
        "input": "0x2f2f2d56000000000000000000000000000000000000000000000000000000000000004000000000000000000000000000000000000000000000000000000000000000800000000000000000000000000000000000000000000000000000000000000006547261646531000000000000000000000000000000000000000000000000000000000000000000000000000000000000000000000000000000000000000000065452414445310000000000000000000000000000000000000000000000000000",
        "nonce": "0x50",
        "chainId": "0x13882"
      },
      "additionalContracts": [
        {
          "transactionType": "CREATE",
          "address": "0xf7a880b587648ea5d81e3e1a1816b5063a9c59ed",
          "initCode": "0x3d602d80600a3d3981f3363d3d373d3d3d363d73b638314b89538e85a2ec01a02921f0598b22c7a35af43d82803e903d91602b57fd5bf3"
        }
      ],
      "isFixedGasLimit": false
    }
  ],
  "receipts": [
    {
      "status": "0x1",
      "cumulativeGasUsed": "0x2c945",
      "logs": [
        {
          "address": "0xf7a880b587648ea5d81e3e1a1816b5063a9c59ed",
          "topics": [
            "0xc7f505b2f371ae2175ee4913f4499e1f2633a7b5936321eed1cdaeb6115181d2"
          ],
          "data": "0x0000000000000000000000000000000000000000000000000000000000000001",
          "blockHash": "0x113bc85cb3bbcd97da8d9c6b4a6e05fe9ff57075bf41bef8cd1401f57914004b",
          "blockNumber": "0xad7f9b",
          "transactionHash": "0xffb23d84bc8b39dc8d5c335076f94d01c10a6baeae703dd2a1a429872540378e",
          "transactionIndex": "0x0",
          "logIndex": "0x0",
          "removed": false
        },
        {
          "address": "0x0000000000000000000000000000000000001010",
          "topics": [
            "0x4dfe1bbbcf077ddc3e01291eea2d5c70c2b422b415d95645b9adcfd678cb1d63",
            "0x0000000000000000000000000000000000000000000000000000000000001010",
            "0x000000000000000000000000f51f97a20c4e00fd4d8f85462cf344bb152b10a3",
            "0x0000000000000000000000004631753190f2f5a15a7ba172bbac102b7d95fa22"
          ],
          "data": "0x0000000000000000000000000000000000000000000000000015cddb3af1acf000000000000000000000000000000000000000000000000576d50d8b1f9f4beb00000000000000000000000000000000000000000000019b9e1879994e49c5c300000000000000000000000000000000000000000000000576bf3fafe4ad9efb00000000000000000000000000000000000000000000019b9e2e4774893b72b3",
          "blockHash": "0x113bc85cb3bbcd97da8d9c6b4a6e05fe9ff57075bf41bef8cd1401f57914004b",
          "blockNumber": "0xad7f9b",
          "transactionHash": "0xffb23d84bc8b39dc8d5c335076f94d01c10a6baeae703dd2a1a429872540378e",
          "transactionIndex": "0x0",
          "logIndex": "0x1",
          "removed": false
        }
      ],
      "logsBloom": "0x00000000000000000080000000000000000000002000000000000000000000000000000000000000000000000000000000008000020000000000000040000000000000000000004000000000000000800000000000000000000100800000000000000000000000100000000000000000000000000000000080000000000000000000000000000000000800000000000000000000000080000000000000000000200100000000000000000000000000000000000000000000000000000000004000000000000000000041000000000000000000000004000000100000000000000000000000000000000000000000000000000000000000000000000000100000",
      "type": "0x2",
      "transactionHash": "0xffb23d84bc8b39dc8d5c335076f94d01c10a6baeae703dd2a1a429872540378e",
      "transactionIndex": "0x0",
      "blockHash": "0x113bc85cb3bbcd97da8d9c6b4a6e05fe9ff57075bf41bef8cd1401f57914004b",
      "blockNumber": "0xad7f9b",
      "gasUsed": "0x2c945",
      "effectiveGasPrice": "0x7d363303f",
      "from": "0xf51f97a20c4e00fd4d8f85462cf344bb152b10a3",
      "to": "0x123f263a89acbb9a16a2fbbc0cc4c5ddde7d826f",
      "contractAddress": null
    }
  ],
  "libraries": [],
  "pending": [],
  "returns": {},
  "timestamp": 1725055813,
  "chain": 80002,
  "commit": "c8ebf40"
}