{
  "transactions": [
    {
      "hash": "0xd229b2d031e052a7454a1e4406755afbc0946d02a51377e00e79a08638c4e4af",
      "transactionType": "CALL",
      "contractName": null,
      "contractAddress": "0xa0cf493379531262f346188fc3ae05946bba7796",
      "function": "createToken(string,string)",
      "arguments": [
        "Basey1",
        "BASEY1"
      ],
      "transaction": {
        "from": "0xf51f97a20c4e00fd4d8f85462cf344bb152b10a3",
        "to": "0xa0cf493379531262f346188fc3ae05946bba7796",
        "gas": "0x41301",
        "value": "0x0",
        "input": "0x2f2f2d56000000000000000000000000000000000000000000000000000000000000004000000000000000000000000000000000000000000000000000000000000000800000000000000000000000000000000000000000000000000000000000000006426173657931000000000000000000000000000000000000000000000000000000000000000000000000000000000000000000000000000000000000000000064241534559310000000000000000000000000000000000000000000000000000",
        "nonce": "0x6a",
        "chainId": "0x13882"
      },
      "additionalContracts": [
        {
          "transactionType": "CREATE",
          "address": "0xc652c9a84fbbfacc9c29f5ea14c72d7723baaa7b",
          "initCode": "0x3d602d80600a3d3981f3363d3d373d3d3d363d73111a1c3ec32cefa2f30657f4f18c599146c401025af43d82803e903d91602b57fd5bf3"
        }
      ],
      "isFixedGasLimit": false
    }
  ],
  "receipts": [
    {
      "status": "0x1",
      "cumulativeGasUsed": "0x4acd3",
      "logs": [
        {
          "address": "0xc652c9a84fbbfacc9c29f5ea14c72d7723baaa7b",
          "topics": [
            "0xc7f505b2f371ae2175ee4913f4499e1f2633a7b5936321eed1cdaeb6115181d2"
          ],
          "data": "0x0000000000000000000000000000000000000000000000000000000000000001",
          "blockHash": "0xc0f2c8e1971cfbe1e4019036986bc9fd8dd1a05b2af5ca8497d2ce583a3fb769",
          "blockNumber": "0xadbcd7",
          "transactionHash": "0xd229b2d031e052a7454a1e4406755afbc0946d02a51377e00e79a08638c4e4af",
          "transactionIndex": "0x1",
          "logIndex": "0x4",
          "removed": false
        },
        {
          "address": "0x0000000000000000000000000000000000001010",
          "topics": [
            "0x4dfe1bbbcf077ddc3e01291eea2d5c70c2b422b415d95645b9adcfd678cb1d63",
            "0x0000000000000000000000000000000000000000000000000000000000001010",
            "0x000000000000000000000000f51f97a20c4e00fd4d8f85462cf344bb152b10a3",
            "0x0000000000000000000000004ad84f7014b7b44f723f284a85b1662337971439"
          ],
          "data": "0x0000000000000000000000000000000000000000000000000013a3d607e75d8f00000000000000000000000000000000000000000000000570588f74e10fb6c80000000000000000000000000000000000000000000002595e42117e6ac730270000000000000000000000000000000000000000000000057044eb9ed92859390000000000000000000000000000000000000000000002595e55b55472ae8db6",
          "blockHash": "0xc0f2c8e1971cfbe1e4019036986bc9fd8dd1a05b2af5ca8497d2ce583a3fb769",
          "blockNumber": "0xadbcd7",
          "transactionHash": "0xd229b2d031e052a7454a1e4406755afbc0946d02a51377e00e79a08638c4e4af",
          "transactionIndex": "0x1",
          "logIndex": "0x5",
          "removed": false
        }
      ],
      "logsBloom": "0x00000000000000000000000000000000000000000000000000000000000000200000000000000000000000000000000000008000020000000000000000400000000000000000000000000000000000800000000000000000000100001000000000000000000000000000000000000000000000000000000080000000000000000000000000000000000800000000000000000000000080000000000000000000200100000000000000000000000000000000020000000000000000000000004000000000000000000041000000000000000000000004000000100000000000000002000000000000000000000000008000000000000000000000000000100000",
      "type": "0x2",
      "transactionHash": "0xd229b2d031e052a7454a1e4406755afbc0946d02a51377e00e79a08638c4e4af",
      "transactionIndex": "0x1",
      "blockHash": "0xc0f2c8e1971cfbe1e4019036986bc9fd8dd1a05b2af5ca8497d2ce583a3fb769",
      "blockNumber": "0xadbcd7",
      "gasUsed": "0x2c92f",
      "effectiveGasPrice": "0x70cc2d9b0",
      "from": "0xf51f97a20c4e00fd4d8f85462cf344bb152b10a3",
      "to": "0xa0cf493379531262f346188fc3ae05946bba7796",
      "contractAddress": null
    }
  ],
  "libraries": [],
  "pending": [],
  "returns": {},
  "timestamp": 1725089384,
  "chain": 80002,
  "commit": "aa2930f"
}