{
  "transactions": [
    {
      "hash": "0x61872ffeebaa6d2826c67db7cf1566b23f4b2321b2d08b53cd2c337410aab892",
      "transactionType": "CALL",
      "contractName": null,
      "contractAddress": "0xb25c62f0e722655da60a71336581dd0fac104f08",
      "function": "createToken(string,string)",
      "arguments": [
        "Basey1",
        "BASEY1"
      ],
      "transaction": {
        "from": "0xf51f97a20c4e00fd4d8f85462cf344bb152b10a3",
        "to": "0xb25c62f0e722655da60a71336581dd0fac104f08",
        "gas": "0x41301",
        "value": "0x0",
        "input": "0x2f2f2d56000000000000000000000000000000000000000000000000000000000000004000000000000000000000000000000000000000000000000000000000000000800000000000000000000000000000000000000000000000000000000000000006426173657931000000000000000000000000000000000000000000000000000000000000000000000000000000000000000000000000000000000000000000064241534559310000000000000000000000000000000000000000000000000000",
        "nonce": "0x6d",
        "chainId": "0x13882"
      },
      "additionalContracts": [
        {
          "transactionType": "CREATE",
          "address": "0xdef8de9cb854b012f6e1d78fdd501f1cc9721ee5",
          "initCode": "0x3d602d80600a3d3981f3363d3d373d3d3d363d7384c0c7b6ef80255f9011431f6ffd0c9b9120b5d05af43d82803e903d91602b57fd5bf3"
        }
      ],
      "isFixedGasLimit": false
    }
  ],
  "receipts": [
    {
      "status": "0x1",
      "cumulativeGasUsed": "0x2c92f",
      "logs": [
        {
          "address": "0xdef8de9cb854b012f6e1d78fdd501f1cc9721ee5",
          "topics": [
            "0xc7f505b2f371ae2175ee4913f4499e1f2633a7b5936321eed1cdaeb6115181d2"
          ],
          "data": "0x0000000000000000000000000000000000000000000000000000000000000001",
          "blockHash": "0xc7fd8fc1261fb66c5bc0796eb6923ccd1410ae648b375ab46b482d3921de796e",
          "blockNumber": "0xadbe3d",
          "transactionHash": "0x61872ffeebaa6d2826c67db7cf1566b23f4b2321b2d08b53cd2c337410aab892",
          "transactionIndex": "0x0",
          "logIndex": "0x0",
          "removed": false
        },
        {
          "address": "0x0000000000000000000000000000000000001010",
          "topics": [
            "0x4dfe1bbbcf077ddc3e01291eea2d5c70c2b422b415d95645b9adcfd678cb1d63",
            "0x0000000000000000000000000000000000000000000000000000000000001010",
            "0x000000000000000000000000f51f97a20c4e00fd4d8f85462cf344bb152b10a3",
            "0x0000000000000000000000004ad84f7014b7b44f723f284a85b1662337971439"
          ],
          "data": "0x00000000000000000000000000000000000000000000000000160a620bf5a7660000000000000000000000000000000000000000000000056f718e18e25e0c4a000000000000000000000000000000000000000000000259608fcd9b11556c8e0000000000000000000000000000000000000000000000056f5b83b6d66864e400000000000000000000000000000000000000000000025960a5d7fd1d4b13f4",
          "blockHash": "0xc7fd8fc1261fb66c5bc0796eb6923ccd1410ae648b375ab46b482d3921de796e",
          "blockNumber": "0xadbe3d",
          "transactionHash": "0x61872ffeebaa6d2826c67db7cf1566b23f4b2321b2d08b53cd2c337410aab892",
          "transactionIndex": "0x0",
          "logIndex": "0x1",
          "removed": false
        }
      ],
      "logsBloom": "0x00000000000000000000000000000000000000000000000000000000000000000000000000000000000000000000000000008000020000000000000000400000000000000000000000000000000000800000000000000000000100001000000000000000000000000000008000000000000000000000000080000000000000000000800000000000000800000000000000000000000080000000000000000000200100000000000000000000000000000000000000000000000000000000004000000000000000000043000000000000000000000004000000100000000000000000000000000000000000000000008000000000000000000000000000100000",
      "type": "0x2",
      "transactionHash": "0x61872ffeebaa6d2826c67db7cf1566b23f4b2321b2d08b53cd2c337410aab892",
      "transactionIndex": "0x0",
      "blockHash": "0xc7fd8fc1261fb66c5bc0796eb6923ccd1410ae648b375ab46b482d3921de796e",
      "blockNumber": "0xadbe3d",
      "gasUsed": "0x2c92f",
      "effectiveGasPrice": "0x7e95ae989",
      "from": "0xf51f97a20c4e00fd4d8f85462cf344bb152b10a3",
      "to": "0xb25c62f0e722655da60a71336581dd0fac104f08",
      "contractAddress": null
    }
  ],
  "libraries": [],
  "pending": [],
  "returns": {},
  "timestamp": 1725090144,
  "chain": 80002,
  "commit": "aa2930f"
}