{
  "transactions": [
    {
      "hash": "0xfe4eb2fdfb5a7c1fcd5af0778e5a6d304505228fec6119d5eb6d9d8c1baede30",
      "transactionType": "CALL",
      "contractName": null,
      "contractAddress": "0xc76ce18b4bfccec0da5f9126c0f823ef672161a6",
      "function": "createToken(string,string)",
      "arguments": [
        "BaseHIT",
        "BASEHIT"
      ],
      "transaction": {
        "from": "0xf51f97a20c4e00fd4d8f85462cf344bb152b10a3",
        "to": "0xc76ce18b4bfccec0da5f9126c0f823ef672161a6",
        "gas": "0x41324",
        "value": "0x0",
        "input": "0x2f2f2d56000000000000000000000000000000000000000000000000000000000000004000000000000000000000000000000000000000000000000000000000000000800000000000000000000000000000000000000000000000000000000000000007426173654849540000000000000000000000000000000000000000000000000000000000000000000000000000000000000000000000000000000000000000074241534548495400000000000000000000000000000000000000000000000000",
        "nonce": "0x71",
        "chainId": "0x13882"
      },
      "additionalContracts": [
        {
          "transactionType": "CREATE",
          "address": "0xc02756e624412fb231082fd015a559363919cf73",
          "initCode": "0x3d602d80600a3d3981f3363d3d373d3d3d363d737ebcfd243999b4ffe76064e3ff052b49a784f3bb5af43d82803e903d91602b57fd5bf3"
        }
      ],
      "isFixedGasLimit": false
    }
  ],
  "receipts": [
    {
      "status": "0x1",
      "cumulativeGasUsed": "0x111e27",
      "logs": [
        {
          "address": "0xc02756e624412fb231082fd015a559363919cf73",
          "topics": [
            "0xc7f505b2f371ae2175ee4913f4499e1f2633a7b5936321eed1cdaeb6115181d2"
          ],
          "data": "0x0000000000000000000000000000000000000000000000000000000000000001",
          "blockHash": "0x1e9567740dc4894bd607bc36372649a151e6beedd9bb0a52aae5cff6c8139654",
          "blockNumber": "0xadbf45",
          "transactionHash": "0xfe4eb2fdfb5a7c1fcd5af0778e5a6d304505228fec6119d5eb6d9d8c1baede30",
          "transactionIndex": "0x2",
          "logIndex": "0x6",
          "removed": false
        },
        {
          "address": "0x0000000000000000000000000000000000001010",
          "topics": [
            "0x4dfe1bbbcf077ddc3e01291eea2d5c70c2b422b415d95645b9adcfd678cb1d63",
            "0x0000000000000000000000000000000000000000000000000000000000001010",
            "0x000000000000000000000000f51f97a20c4e00fd4d8f85462cf344bb152b10a3",
            "0x000000000000000000000000915a2284d28bd93de7d6f31173b981204bb666e6"
          ],
          "data": "0x00000000000000000000000000000000000000000000000000141c41ec75f0b90000000000000000000000000000000000000000000000056df1c312def7a766000000000000000000000000000000000000000000000373eb5be5f9311ff4970000000000000000000000000000000000000000000000056ddda6d0f281b6ad000000000000000000000000000000000000000000000373eb70023b1d95e550",
          "blockHash": "0x1e9567740dc4894bd607bc36372649a151e6beedd9bb0a52aae5cff6c8139654",
          "blockNumber": "0xadbf45",
          "transactionHash": "0xfe4eb2fdfb5a7c1fcd5af0778e5a6d304505228fec6119d5eb6d9d8c1baede30",
          "transactionIndex": "0x2",
          "logIndex": "0x7",
          "removed": false
        }
      ],
      "logsBloom": "0x00000000000000000010000000000000000000000000000000000000000000000000000000000000000000000000000000008000020000000000000000000000000000000000000000000000000000800000000000000000000100000000000000000000000000000000000000000000000000000000000080000000000000000000000000000000000800000000000000000000000080000000000040000000200100000000000000000001000000000000000000002000000000000000004000000000000000000041000000000000000002000004000000100000000000000000000000000000000000000000000000000000400000000000000000100000",
      "type": "0x2",
      "transactionHash": "0xfe4eb2fdfb5a7c1fcd5af0778e5a6d304505228fec6119d5eb6d9d8c1baede30",
      "transactionIndex": "0x2",
      "blockHash": "0x1e9567740dc4894bd607bc36372649a151e6beedd9bb0a52aae5cff6c8139654",
      "blockNumber": "0xadbf45",
      "gasUsed": "0x2c947",
      "effectiveGasPrice": "0x737be760e",
      "from": "0xf51f97a20c4e00fd4d8f85462cf344bb152b10a3",
      "to": "0xc76ce18b4bfccec0da5f9126c0f823ef672161a6",
      "contractAddress": null
    }
  ],
  "libraries": [],
  "pending": [],
  "returns": {},
  "timestamp": 1725090707,
  "chain": 80002,
  "commit": "aa2930f"
}