{
  "transactions": [
    {
      "hash": "0x803ab936fdf83c413fc32895cd8d757f1852083b2df0187de0e0edc85d9a09b3",
      "transactionType": "CREATE",
      "contractName": "BaseToken",
      "contractAddress": "0x69bc0df1dc942c15b4179815b783d0a336df3bdc",
      "function": null,
      "arguments": null,
      "transaction": {
        "from": "0xf51f97a20c4e00fd4d8f85462cf344bb152b10a3",
        "gas": "0xff950",
        "value": "0x0",
        "input": "0x6080604052348015600f57600080fd5b50610d9b8061001f6000396000f3fe608060405234801561001057600080fd5b50600436106100cf5760003560e01c80634cd88b761161008c57806395d89b411161006657806395d89b41146101f15780639dc29fac146101f9578063a9059cbb1461020c578063dd62ed3e1461021f57600080fd5b80634cd88b761461017d57806370a08231146101905780638da5cb5b146101c657600080fd5b806306fdde03146100d4578063095ea7b3146100f257806318160ddd1461011557806323b872dd14610146578063313ce5671461015957806340c10f1914610168575b600080fd5b6100dc610232565b6040516100e991906109b0565b60405180910390f35b610105610100366004610a1a565b6102f5565b60405190151581526020016100e9565b7f52c63247e1f47db19d5ce0460030c497f067ca4cebf71ba98eeadabe20bace02545b6040519081526020016100e9565b610105610154366004610a44565b61030f565b604051601281526020016100e9565b61017b610176366004610a1a565b610333565b005b61017b61018b366004610b26565b61038d565b61013861019e366004610b8f565b6001600160a01b03166000908152600080516020610d46833981519152602052604090205490565b6000546101d9906001600160a01b031681565b6040516001600160a01b0390911681526020016100e9565b6100dc6104b1565b61017b610207366004610a1a565b6104f0565b61010561021a366004610a1a565b610541565b61013861022d366004610bb1565b61054f565b7f52c63247e1f47db19d5ce0460030c497f067ca4cebf71ba98eeadabe20bace038054606091600080516020610d468339815191529161027190610be4565b80601f016020809104026020016040519081016040528092919081815260200182805461029d90610be4565b80156102ea5780601f106102bf576101008083540402835291602001916102ea565b820191906000526020600020905b8154815290600101906020018083116102cd57829003601f168201915b505050505091505090565b600033610303818585610599565b60019150505b92915050565b60003361031d8582856105ab565b610328858585610611565b506001949350505050565b6000546001600160a01b0316331461037f5760405162461bcd60e51b815260206004820152600a60248201526927b7363c9037bbb732b960b11b60448201526064015b60405180910390fd5b6103898282610670565b5050565b7ff0c57e16840df040f15088dc2f81fe391c3923bec73e23a9662efc9c229c6a008054600160401b810460ff16159067ffffffffffffffff166000811580156103d35750825b905060008267ffffffffffffffff1660011480156103f05750303b155b9050811580156103fe575080155b1561041c5760405163f92ee8a960e01b815260040160405180910390fd5b845467ffffffffffffffff19166001178555831561044657845460ff60401b1916600160401b1785555b600080546001600160a01b0319163317905561046287876106a6565b83156104a857845460ff60401b19168555604051600181527fc7f505b2f371ae2175ee4913f4499e1f2633a7b5936321eed1cdaeb6115181d29060200160405180910390a15b50505050505050565b7f52c63247e1f47db19d5ce0460030c497f067ca4cebf71ba98eeadabe20bace048054606091600080516020610d468339815191529161027190610be4565b6000546001600160a01b031633146105375760405162461bcd60e51b815260206004820152600a60248201526927b7363c9037bbb732b960b11b6044820152606401610376565b61038982826106b8565b600033610303818585610611565b6001600160a01b0391821660009081527f52c63247e1f47db19d5ce0460030c497f067ca4cebf71ba98eeadabe20bace016020908152604080832093909416825291909152205490565b6105a683838360016106ee565b505050565b60006105b7848461054f565b9050600019811461060b57818110156105fc57604051637dc7a0d960e11b81526001600160a01b03841660048201526024810182905260448101839052606401610376565b61060b848484840360006106ee565b50505050565b6001600160a01b03831661063b57604051634b637e8f60e11b815260006004820152602401610376565b6001600160a01b0382166106655760405163ec442f0560e01b815260006004820152602401610376565b6105a68383836107d6565b6001600160a01b03821661069a5760405163ec442f0560e01b815260006004820152602401610376565b610389600083836107d6565b6106ae610914565b610389828261095f565b6001600160a01b0382166106e257604051634b637e8f60e11b815260006004820152602401610376565b610389826000836107d6565b600080516020610d468339815191526001600160a01b0385166107275760405163e602df0560e01b815260006004820152602401610376565b6001600160a01b03841661075157604051634a1406b160e11b815260006004820152602401610376565b6001600160a01b038086166000908152600183016020908152604080832093881683529290522083905581156107cf57836001600160a01b0316856001600160a01b03167f8c5be1e5ebec7d5bd14f71427d1e84f3dd0314c0f7b2291e5b200ac8c7c3b925856040516107c691815260200190565b60405180910390a35b5050505050565b600080516020610d468339815191526001600160a01b03841661081257818160020160008282546108079190610c1e565b909155506108849050565b6001600160a01b038416600090815260208290526040902054828110156108655760405163391434e360e21b81526001600160a01b03861660048201526024810182905260448101849052606401610376565b6001600160a01b03851660009081526020839052604090209083900390555b6001600160a01b0383166108a25760028101805483900390556108c1565b6001600160a01b03831660009081526020829052604090208054830190555b826001600160a01b0316846001600160a01b03167fddf252ad1be2c89b69c2b068fc378daa952ba7f163c4a11628f55a4df523b3ef8460405161090691815260200190565b60405180910390a350505050565b7ff0c57e16840df040f15088dc2f81fe391c3923bec73e23a9662efc9c229c6a0054600160401b900460ff1661095d57604051631afcd79f60e31b815260040160405180910390fd5b565b610967610914565b600080516020610d468339815191527f52c63247e1f47db19d5ce0460030c497f067ca4cebf71ba98eeadabe20bace036109a18482610c86565b506004810161060b8382610c86565b602081526000825180602084015260005b818110156109de57602081860181015160408684010152016109c1565b506000604082850101526040601f19601f83011684010191505092915050565b80356001600160a01b0381168114610a1557600080fd5b919050565b60008060408385031215610a2d57600080fd5b610a36836109fe565b946020939093013593505050565b600080600060608486031215610a5957600080fd5b610a62846109fe565b9250610a70602085016109fe565b929592945050506040919091013590565b634e487b7160e01b600052604160045260246000fd5b600082601f830112610aa857600080fd5b813567ffffffffffffffff811115610ac257610ac2610a81565b604051601f8201601f19908116603f0116810167ffffffffffffffff81118282101715610af157610af1610a81565b604052818152838201602001851015610b0957600080fd5b816020850160208301376000918101602001919091529392505050565b60008060408385031215610b3957600080fd5b823567ffffffffffffffff811115610b5057600080fd5b610b5c85828601610a97565b925050602083013567ffffffffffffffff811115610b7957600080fd5b610b8585828601610a97565b9150509250929050565b600060208284031215610ba157600080fd5b610baa826109fe565b9392505050565b60008060408385031215610bc457600080fd5b610bcd836109fe565b9150610bdb602084016109fe565b90509250929050565b600181811c90821680610bf857607f821691505b602082108103610c1857634e487b7160e01b600052602260045260246000fd5b50919050565b8082018082111561030957634e487b7160e01b600052601160045260246000fd5b601f8211156105a657806000526020600020601f840160051c81016020851015610c665750805b601f840160051c820191505b818110156107cf5760008155600101610c72565b815167ffffffffffffffff811115610ca057610ca0610a81565b610cb481610cae8454610be4565b84610c3f565b6020601f821160018114610ce85760008315610cd05750848201515b600019600385901b1c1916600184901b1784556107cf565b600084815260208120601f198516915b82811015610d185787850151825560209485019460019092019101610cf8565b5084821015610d365786840151600019600387901b60f8161c191681555b50505050600190811b0190555056fe52c63247e1f47db19d5ce0460030c497f067ca4cebf71ba98eeadabe20bace00a26469706673582212203103cfc9b545b54300fba56542b078f52d6255e455b57c91c6524a1b66e2f02864736f6c634300081a0033",
        "nonce": "0x57",
        "chainId": "0x13882"
      },
      "additionalContracts": [],
      "isFixedGasLimit": false
    },
    {
      "hash": "0x002e276b98328999ab3acdce6fbd3a43615b11bc01381e878e4844ddedc0404a",
      "transactionType": "CALL",
      "contractName": "BaseToken",
      "contractAddress": "0x69bc0df1dc942c15b4179815b783d0a336df3bdc",
      "function": "initialize(string,string)",
      "arguments": [
        "Curate",
        "CURATE"
      ],
      "transaction": {
        "from": "0xf51f97a20c4e00fd4d8f85462cf344bb152b10a3",
        "to": "0x69bc0df1dc942c15b4179815b783d0a336df3bdc",
        "gas": "0x28df9",
        "value": "0x0",
        "input": "0x4cd88b76000000000000000000000000000000000000000000000000000000000000004000000000000000000000000000000000000000000000000000000000000000800000000000000000000000000000000000000000000000000000000000000006437572617465000000000000000000000000000000000000000000000000000000000000000000000000000000000000000000000000000000000000000000064355524154450000000000000000000000000000000000000000000000000000",
        "nonce": "0x58",
        "chainId": "0x13882"
      },
      "additionalContracts": [],
      "isFixedGasLimit": false
    }
  ],
  "receipts": [
    {
      "status": "0x1",
      "cumulativeGasUsed": "0xc4a7c",
      "logs": [
        {
          "address": "0x0000000000000000000000000000000000001010",
          "topics": [
            "0x4dfe1bbbcf077ddc3e01291eea2d5c70c2b422b415d95645b9adcfd678cb1d63",
            "0x0000000000000000000000000000000000000000000000000000000000001010",
            "0x000000000000000000000000f51f97a20c4e00fd4d8f85462cf344bb152b10a3",
            "0x00000000000000000000000009207a6efee346cb3e4a54ac18523e3715d38b3f"
          ],
          "data": "0x00000000000000000000000000000000000000000000000000581219c10177d800000000000000000000000000000000000000000000000574ac208c2997250800000000000000000000000000000000000000000000024bf02c10ae0af4d6cc00000000000000000000000000000000000000000000000574540e726895ad3000000000000000000000000000000000000000000000024bf08422c7cbf64ea4",
          "blockHash": "0x55735933c77622438e992fbecd3753f89ff375fe6f850918a4a47acd05ab5e4b",
          "blockNumber": "0xad93f3",
          "transactionHash": "0x803ab936fdf83c413fc32895cd8d757f1852083b2df0187de0e0edc85d9a09b3",
          "transactionIndex": "0x0",
          "logIndex": "0x0",
          "removed": false
        }
      ],
      "logsBloom": "0x00000000000000000000000000000000000000000000000000000000000000000000000000000000000000000000000000008000020000000000010000000000000000000000000000000000000000800000000000000000000100000000000000000000000000000000000000000000000000000000000080000000000000000000000000000000000000000000000000004000000000000000000000000000200100000000000000000000000000000000000000000000000000000000004000000000000000000041000000000000000000000000000000100000000000000000000000000000000000010000000000000000000000000000000000100000",
      "type": "0x2",
      "transactionHash": "0x803ab936fdf83c413fc32895cd8d757f1852083b2df0187de0e0edc85d9a09b3",
      "transactionIndex": "0x0",
      "blockHash": "0x55735933c77622438e992fbecd3753f89ff375fe6f850918a4a47acd05ab5e4b",
      "blockNumber": "0xad93f3",
      "gasUsed": "0xc4a7c",
      "effectiveGasPrice": "0x72a5d8459",
      "from": "0xf51f97a20c4e00fd4d8f85462cf344bb152b10a3",
      "to": null,
      "contractAddress": "0x69bc0df1dc942c15b4179815b783d0a336df3bdc"
    },
    {
      "status": "0x1",
      "cumulativeGasUsed": "0xe09a6",
      "logs": [
        {
          "address": "0x69bc0df1dc942c15b4179815b783d0a336df3bdc",
          "topics": [
            "0xc7f505b2f371ae2175ee4913f4499e1f2633a7b5936321eed1cdaeb6115181d2"
          ],
          "data": "0x0000000000000000000000000000000000000000000000000000000000000001",
          "blockHash": "0x55735933c77622438e992fbecd3753f89ff375fe6f850918a4a47acd05ab5e4b",
          "blockNumber": "0xad93f3",
          "transactionHash": "0x002e276b98328999ab3acdce6fbd3a43615b11bc01381e878e4844ddedc0404a",
          "transactionIndex": "0x1",
          "logIndex": "0x1",
          "removed": false
        },
        {
          "address": "0x0000000000000000000000000000000000001010",
          "topics": [
            "0x4dfe1bbbcf077ddc3e01291eea2d5c70c2b422b415d95645b9adcfd678cb1d63",
            "0x0000000000000000000000000000000000000000000000000000000000001010",
            "0x000000000000000000000000f51f97a20c4e00fd4d8f85462cf344bb152b10a3",
            "0x00000000000000000000000009207a6efee346cb3e4a54ac18523e3715d38b3f"
          ],
          "data": "0x000000000000000000000000000000000000000000000000000c84263d54ea2400000000000000000000000000000000000000000000000574540e7267dd4fec00000000000000000000000000000000000000000000024bf08422c7cbf64ea400000000000000000000000000000000000000000000000574478a4c2a8865c800000000000000000000000000000000000000000000024bf090a6ee094b38c8",
          "blockHash": "0x55735933c77622438e992fbecd3753f89ff375fe6f850918a4a47acd05ab5e4b",
          "blockNumber": "0xad93f3",
          "transactionHash": "0x002e276b98328999ab3acdce6fbd3a43615b11bc01381e878e4844ddedc0404a",
          "transactionIndex": "0x1",
          "logIndex": "0x2",
          "removed": false
        }
      ],
      "logsBloom": "0x00000000000000000000000000000000000000000000000000000000000000000000000000000000000000000000000000008000020000000000010000000000000000000000000000000000000000800000000000000000000100000000000000000000000000000000000000000000000000000000000080000000000000000000000000000000000800000000000000004000000080000000000000000000200104000000000000000000000000000000000040000000000000000000004000000000000000000041000000000000000000000004000000100000100000000000000000000000000000010000000000000000000000000000000000100000",
      "type": "0x2",
      "transactionHash": "0x002e276b98328999ab3acdce6fbd3a43615b11bc01381e878e4844ddedc0404a",
      "transactionIndex": "0x1",
      "blockHash": "0x55735933c77622438e992fbecd3753f89ff375fe6f850918a4a47acd05ab5e4b",
      "blockNumber": "0xad93f3",
      "gasUsed": "0x1bf2a",
      "effectiveGasPrice": "0x72a5d8459",
      "from": "0xf51f97a20c4e00fd4d8f85462cf344bb152b10a3",
      "to": "0x69bc0df1dc942c15b4179815b783d0a336df3bdc",
      "contractAddress": null
    }
  ],
  "libraries": [],
  "pending": [],
  "returns": {},
  "timestamp": 1725066903,
  "chain": 80002,
  "commit": "aa2930f"
}