{
  "transactions": [
    {
      "hash": "0x83d8f8a1b59c503b5a025fcfb7fba7c5e59e693e9decfded498f00bfc2725998",
      "transactionType": "CALL",
      "contractName": null,
      "contractAddress": "0x81790689f668c4e87acf65e7790e1e4d884d5bfd",
      "function": "createToken(string,string)",
      "arguments": [
        "Claude1",
        "CDE1"
      ],
      "transaction": {
        "from": "0xf51f97a20c4e00fd4d8f85462cf344bb152b10a3",
        "to": "0x81790689f668c4e87acf65e7790e1e4d884d5bfd",
        "gas": "0x3d91d",
        "value": "0x0",
        "input": "0x2f2f2d56000000000000000000000000000000000000000000000000000000000000004000000000000000000000000000000000000000000000000000000000000000800000000000000000000000000000000000000000000000000000000000000007436c61756465310000000000000000000000000000000000000000000000000000000000000000000000000000000000000000000000000000000000000000044344453100000000000000000000000000000000000000000000000000000000",
        "nonce": "0x5ed",
        "chainId": "0x89"
      },
      "additionalContracts": [
        {
          "transactionType": "CREATE",
          "address": "0x92e62e1a6005df37438333755bb8e9b74fc57dd7",
          "initCode": "0x3d602d80600a3d3981f3363d3d373d3d3d363d73d3ec944a057fd25bc5bec45f86f791301cf7b4e95af43d82803e903d91602b57fd5bf3"
        }
      ],
      "isFixedGasLimit": false
    }
  ],
  "receipts": [
    {
      "status": "0x1",
      "cumulativeGasUsed": "0xdbc52d",
      "logs": [
        {
          "address": "0x92e62e1a6005df37438333755bb8e9b74fc57dd7",
          "topics": [
            "0xc7f505b2f371ae2175ee4913f4499e1f2633a7b5936321eed1cdaeb6115181d2"
          ],
          "data": "0x0000000000000000000000000000000000000000000000000000000000000001",
          "blockHash": "0xcdd6c2009adad68ab0ac558f3ac23871ab29162ab38e03b5b043c4373bbff1b1",
          "blockNumber": "0x3a53b99",
          "transactionHash": "0x83d8f8a1b59c503b5a025fcfb7fba7c5e59e693e9decfded498f00bfc2725998",
          "transactionIndex": "0x3a",
          "logIndex": "0x335",
          "removed": false
        },
        {
          "address": "0x0000000000000000000000000000000000001010",
          "topics": [
            "0x4dfe1bbbcf077ddc3e01291eea2d5c70c2b422b415d95645b9adcfd678cb1d63",
            "0x0000000000000000000000000000000000000000000000000000000000001010",
            "0x000000000000000000000000f51f97a20c4e00fd4d8f85462cf344bb152b10a3",
            "0x0000000000000000000000001b0840519a581f3779d0a10b77593d6d3894a76a"
          ],
          "data": "0x000000000000000000000000000000000000000000000000001375cd7dfd4c0000000000000000000000000000000000000000000000003dd144b81f95fa1de7000000000000000000000000000000000000000000003fb76e84e8130e44d83200000000000000000000000000000000000000000000003dd131425217fcd1e7000000000000000000000000000000000000000000003fb76e985de08c422432",
          "blockHash": "0xcdd6c2009adad68ab0ac558f3ac23871ab29162ab38e03b5b043c4373bbff1b1",
          "blockNumber": "0x3a53b99",
          "transactionHash": "0x83d8f8a1b59c503b5a025fcfb7fba7c5e59e693e9decfded498f00bfc2725998",
          "transactionIndex": "0x3a",
          "logIndex": "0x336",
          "removed": false
        }
      ],
      "logsBloom": "0x00000000000000000000000000020000000001000000000000000000000000000000000000000000000000000000000000008000020000000000000000000000000000000000000000000000000000800000000000000000000100000000000000000000000000000000000000000000000000000000000080000000000000000000000000008000000800000000000000000000000080000000000000000020200100000000000000000000000000000000000000000000000000000000004000000000000000000041000000000000000000000004000000100000000000000000000000000000000000100001000000000000000000000000000000100000",
      "type": "0x2",
      "transactionHash": "0x83d8f8a1b59c503b5a025fcfb7fba7c5e59e693e9decfded498f00bfc2725998",
      "transactionIndex": "0x3a",
      "blockHash": "0xcdd6c2009adad68ab0ac558f3ac23871ab29162ab38e03b5b043c4373bbff1b1",
      "blockNumber": "0x3a53b99",
      "gasUsed": "0x2c939",
      "effectiveGasPrice": "0x6fc23ac18",
      "from": "0xf51f97a20c4e00fd4d8f85462cf344bb152b10a3",
      "to": "0x81790689f668c4e87acf65e7790e1e4d884d5bfd",
      "contractAddress": null
    }
  ],
  "libraries": [],
  "pending": [],
  "returns": {},
  "timestamp": 1724889183,
  "chain": 137,
  "commit": "c1ea02c"
}