{
  "transactions": [
    {
      "hash": "0xfa4bd8a16ffe0af72248826fc46c55fb422e6eb0c1de64519a72074dd61483e2",
      "transactionType": "CALL",
      "contractName": null,
      "contractAddress": "0xe9f04f0d22b239032c1c491f68a820fe620d911f",
      "function": "createToken(string,string)",
      "arguments": [
        "Claude1",
        "CDE1"
      ],
      "transaction": {
        "from": "0xf51f97a20c4e00fd4d8f85462cf344bb152b10a3",
        "to": "0xe9f04f0d22b239032c1c491f68a820fe620d911f",
        "gas": "0x3d94c",
        "value": "0x0",
        "input": "0x2f2f2d56000000000000000000000000000000000000000000000000000000000000004000000000000000000000000000000000000000000000000000000000000000800000000000000000000000000000000000000000000000000000000000000007436c61756465310000000000000000000000000000000000000000000000000000000000000000000000000000000000000000000000000000000000000000044344453100000000000000000000000000000000000000000000000000000000",
        "nonce": "0x5ea",
        "chainId": "0x89"
      },
      "additionalContracts": [
        {
          "transactionType": "CREATE",
          "address": "0xffd7025bbda884f960ebde73b963ccb18dc5ce36",
          "initCode": "0x3d602d80600a3d3981f3363d3d373d3d3d363d737eeb1cc50d80a1db5f215c60dc59793d17cf43745af43d82803e903d91602b57fd5bf3"
        }
      ],
      "isFixedGasLimit": false
    }
  ],
  "receipts": [
    {
      "status": "0x1",
      "cumulativeGasUsed": "0x3880dd",
      "logs": [
        {
          "address": "0xffd7025bbda884f960ebde73b963ccb18dc5ce36",
          "topics": [
            "0xc7f505b2f371ae2175ee4913f4499e1f2633a7b5936321eed1cdaeb6115181d2"
          ],
          "data": "0x0000000000000000000000000000000000000000000000000000000000000001",
          "blockHash": "0x03e7ccae75bd7b49cd9e0af09119b02893f195519c946950112481339b3248ac",
          "blockNumber": "0x3a53a10",
          "transactionHash": "0xfa4bd8a16ffe0af72248826fc46c55fb422e6eb0c1de64519a72074dd61483e2",
          "transactionIndex": "0x1c",
          "logIndex": "0x66",
          "removed": false
        },
        {
          "address": "0x0000000000000000000000000000000000001010",
          "topics": [
            "0x4dfe1bbbcf077ddc3e01291eea2d5c70c2b422b415d95645b9adcfd678cb1d63",
            "0x0000000000000000000000000000000000000000000000000000000000001010",
            "0x000000000000000000000000f51f97a20c4e00fd4d8f85462cf344bb152b10a3",
            "0x0000000000000000000000009ead03f7136fc6b4bdb0780b00a1c14ae5a8b6d0"
          ],
          "data": "0x000000000000000000000000000000000000000000000000001554fe06414b2c00000000000000000000000000000000000000000000003dd26ee35d1fcff5de000000000000000000000000000000000000000000001822ee522168df90a2d000000000000000000000000000000000000000000000003dd2598e5f198eaab2000000000000000000000000000000000000000000001822ee677666e5d1edfc",
          "blockHash": "0x03e7ccae75bd7b49cd9e0af09119b02893f195519c946950112481339b3248ac",
          "blockNumber": "0x3a53a10",
          "transactionHash": "0xfa4bd8a16ffe0af72248826fc46c55fb422e6eb0c1de64519a72074dd61483e2",
          "transactionIndex": "0x1c",
          "logIndex": "0x67",
          "removed": false
        }
      ],
      "logsBloom": "0x00000000000000000000000000000000000000000000000000000000000000000000000000000000000000000000000000008000020000000000000000000000000200000000000000000000000000800000000000000000000100000000000000000000000000000000000000000000000000000000000080000000000000000040000000040000000800000000000400000000000080000000000000000080200100000000000000000000000000000000000000000000000000000000004000000000000000000041000000000000000000000004000000120000000000000000000000000000000000000000000000000000000000000000000000100000",
      "type": "0x2",
      "transactionHash": "0xfa4bd8a16ffe0af72248826fc46c55fb422e6eb0c1de64519a72074dd61483e2",
      "transactionIndex": "0x1c",
      "blockHash": "0x03e7ccae75bd7b49cd9e0af09119b02893f195519c946950112481339b3248ac",
      "blockNumber": "0x3a53a10",
      "gasUsed": "0x2c95b",
      "effectiveGasPrice": "0x7a7c59d5e",
      "from": "0xf51f97a20c4e00fd4d8f85462cf344bb152b10a3",
      "to": "0xe9f04f0d22b239032c1c491f68a820fe620d911f",
      "contractAddress": null
    }
  ],
  "libraries": [],
  "pending": [],
  "returns": {},
  "timestamp": 1724888347,
  "chain": 137,
  "commit": "c1ea02c"
}