{
  "transactions": [
    {
      "hash": "0x65cce393d209bb6bc6c45291ac91344a639680d6df1fa0d973ff6ac0a8176e12",
      "transactionType": "CALL",
      "contractName": null,
      "contractAddress": "0x81790689f668c4e87acf65e7790e1e4d884d5bfd",
      "function": "createToken(string,string)",
      "arguments": [
        "Claude1",
        "CDE1"
      ],
      "transaction": {
        "from": "0xf51f97a20c4e00fd4d8f85462cf344bb152b10a3",
        "to": "0x81790689f668c4e87acf65e7790e1e4d884d5bfd",
        "gas": "0x3d91d",
        "value": "0x0",
        "input": "0x2f2f2d56000000000000000000000000000000000000000000000000000000000000004000000000000000000000000000000000000000000000000000000000000000800000000000000000000000000000000000000000000000000000000000000007436c61756465310000000000000000000000000000000000000000000000000000000000000000000000000000000000000000000000000000000000000000044344453100000000000000000000000000000000000000000000000000000000",
        "nonce": "0x5f0",
        "chainId": "0x89"
      },
      "additionalContracts": [
        {
          "transactionType": "CREATE",
          "address": "0x88d95f11fdc3ced7ebff7d1ada53de26d3202e9a",
          "initCode": "0x3d602d80600a3d3981f3363d3d373d3d3d363d73d3ec944a057fd25bc5bec45f86f791301cf7b4e95af43d82803e903d91602b57fd5bf3"
        }
      ],
      "isFixedGasLimit": false
    }
  ],
  "receipts": [
    {
      "status": "0x1",
      "cumulativeGasUsed": "0xc5daa8",
      "logs": [
        {
          "address": "0x88d95f11fdc3ced7ebff7d1ada53de26d3202e9a",
          "topics": [
            "0xc7f505b2f371ae2175ee4913f4499e1f2633a7b5936321eed1cdaeb6115181d2"
          ],
          "data": "0x0000000000000000000000000000000000000000000000000000000000000001",
          "blockHash": "0x5f1b2297846b06c8dd7b5375d4d9e16d590cd2e9b148b7567f7f568786ba0c95",
          "blockNumber": "0x3a53c8f",
          "transactionHash": "0x65cce393d209bb6bc6c45291ac91344a639680d6df1fa0d973ff6ac0a8176e12",
          "transactionIndex": "0x32",
          "logIndex": "0x60c",
          "removed": false
        },
        {
          "address": "0x0000000000000000000000000000000000001010",
          "topics": [
            "0x4dfe1bbbcf077ddc3e01291eea2d5c70c2b422b415d95645b9adcfd678cb1d63",
            "0x0000000000000000000000000000000000000000000000000000000000001010",
            "0x000000000000000000000000f51f97a20c4e00fd4d8f85462cf344bb152b10a3",
            "0x000000000000000000000000ef46d5fe753c988606e6f703260d816af53b03eb"
          ],
          "data": "0x000000000000000000000000000000000000000000000000001375cd7dfd4c0000000000000000000000000000000000000000000000003dd02d543ce54f525b000000000000000000000000000000000000000000000098d96528f6c5a3153100000000000000000000000000000000000000000000003dd019de6f6752065b000000000000000000000000000000000000000000000098d9789ec443a06131",
          "blockHash": "0x5f1b2297846b06c8dd7b5375d4d9e16d590cd2e9b148b7567f7f568786ba0c95",
          "blockNumber": "0x3a53c8f",
          "transactionHash": "0x65cce393d209bb6bc6c45291ac91344a639680d6df1fa0d973ff6ac0a8176e12",
          "transactionIndex": "0x32",
          "logIndex": "0x60d",
          "removed": false
        }
      ],
      "logsBloom": "0x000000100000100000000000000000000000000000000000000000000400000000000000000000000000000000000000000080000200000000000000000000000000000000000000000000000000008000000000000000000001000000000000000000000000000000000000000000000000000000000000800000000000000000000000000000000008000000000000000000000000800000000000000000002001000000000000000000000000000000000000000000000000002000000040000000000000000000c1000000000000000000000004000000100000000000000000000000000000000000000000000002000000000000000000000000100000",
      "type": "0x2",
      "transactionHash": "0x65cce393d209bb6bc6c45291ac91344a639680d6df1fa0d973ff6ac0a8176e12",
      "transactionIndex": "0x32",
      "blockHash": "0x5f1b2297846b06c8dd7b5375d4d9e16d590cd2e9b148b7567f7f568786ba0c95",
      "blockNumber": "0x3a53c8f",
      "gasUsed": "0x2c939",
      "effectiveGasPrice": "0x6fc23ac23",
      "from": "0xf51f97a20c4e00fd4d8f85462cf344bb152b10a3",
      "to": "0x81790689f668c4e87acf65e7790e1e4d884d5bfd",
      "contractAddress": null
    }
  ],
  "libraries": [],
  "pending": [],
  "returns": {},
  "timestamp": 1724889710,
  "chain": 137,
  "commit": "c1ea02c"
}